:020000040800F2
:104000006023002045410008E58D00087984000800
:10401000E18D0008D5450008F5B900080000000052
:104020000000000000000000000000009197000860
:104030009146000800000000659200089397000870
:104040005F4100085F4100085F4100085F410008D0
:104050005F4100085F4100085F4100085F410008C0
:104060005F4100085F4100085F41000861460008A9
:104070005F4100085F4100085F4100085F410008A0
:104080005F4100085F410008714400085F4100087B
:104090005DB900085F4100085F4100085F4100080A
:1040A0005F4100085F4100085F4100085F41000870
:1040B0005F4100085F4100085F4100085F41000860
:1040C0005F4100085F4100085F4100085F41000850
:1040D0005F410008799F00085F4100085F410008C8
:1040E0008D4700085F4100085F4100085F410008FC
:1040F0005F4100085F4100085F4100085F41000820
:104100005F4100085F410008899800085F4100088E
:104110003D9B00085F410008BD9800085F41000812
:104120005F4100085F4100085F4100085F410008EF
:10413000DFF80CD000F050F90048004789BA0008B9
:10414000602300200648804706480047FEE7FEE758
:10415000FEE7FEE7FEE7FEE7FEE7FEE7FEE7FEE737
:104160002D98000831410008202A04DB203A21FA6A
:1041700002F00021704721FA02F3D040C2F1200280
:10418000914008431946704740EA01039B0703D05A
:1041900009E008C9121F08C0042AFAD203E011F886
:1041A000013B00F8013B521EF9D27047D2B201E048
:1041B00000F8012B491EFBD270470022F6E710B52C
:1041C00013460A4604461946FFF7F0FF204610BD85
:1041D00030B505462A460B4612F8010B13F8014B81
:1041E00008B1A042F8D01CB1002802D06D1CF1E744
:1041F000284630BD2DE9F04D81EA030404F0004B60
:1042000021F0004514464FF0000A23F0004150EA27
:10421000050220D054EA01021DD0C5F30A57024618
:10422000C5F31303C1F31300C1F30A5640F480151C
:1042300043F48013A7EB0608101BD64608F2FD389E
:1042400073EB050002D308F1010801E092185B410D
:10425000B8F1000F03DA00200146BDE8F08D002020
:104260004FF48011064684460EE0171B73EB0507DA
:1042700005D3121B63EB050306434CEA010C490806
:104280004FEA300092185B4150EA0107EDD152EA43
:10429000030012D082EA040083EA0501084305D036
:1042A000101BAB4106D20122002306E000224FF092
:1042B000004302E06FF0010253101AEB06004CEBD2
:1042C000085110EB0A0041EB0B01BDE8F04D00F086
:1042D00026B80EB540F2334102910021CDE900111C
:1042E0000A460B4600F02AF803B000BDC1F30A529B
:1042F00010B5C1F3130140F2FF3341F480119A422B
:1043000001DA002010BD40F233439A42A2F2334258
:1043100003DC5242FFF728FF10BD904010BD10B5DE
:10432000141E73F1000408DA401C41F100019218D8
:104330005B411A4301D120F0010010BD2DE9F04D81
:1043400092469B4611B1B1FA81F202E0B0FA80F2D6
:104350002032904600F052F804460F4640EA0A0028
:1043600041EA0B0153465A46084313D0114653EA1B
:10437000010019D0C8F140025046FFF7F5FE05468E
:104380000E4650465946424600F038F8084305D0DC
:10439000012004E020463946BDE8F08D00200543A9
:1043A00046EAE0762C4337430A986305E40AA0EB1B
:1043B00008000022FD0A44EA47540A3002D50020D2
:1043C0000146E9E7010510196941DDE908450019D1
:1043D0006941BDE8F04DA2E7064C074D06E0E068F4
:1043E00040F0010394E8070098471034AC42F6D33C
:1043F000FFF7A2FE3CCD00085CCD0008202A04DBBC
:10440000203A00FA02F1002070479140C2F12003E7
:1044100020FA03F319439040704770B58C1810F8D8
:10442000015B15F0070301D110F8013B2A1106D1F9
:1044300010F8012B03E010F8016B01F8016B5B1E13
:10444000F9D12B0705D40023521E0DD401F8013BEE
:10445000FAE710F8013BCB1A921C03E013F8015B5A
:1044600001F8015B521EF9D5A142D8D3002070BDDE
:1044700010B5024800F079FA10BD0000C80C002009
:1044800070B5044600252068806800F00100F0B196
:104490002068806820F001002168886001F01EFC1F
:1044A00005460EE001F01AFC401B022809D9A06A5B
:1044B00040F01000A062E06A40F00100E0620120DC
:1044C00070BD2068806800F001000028EAD100205B
:1044D000F6E770B505466C6AA06A00F05000E0B9D6
:1044E000A06A40F40070A0622068806800F4602038
:1044F000B0F5602F0DD1E06858B9A06A20F4807043
:10450000A062A06A00F4805018B9A06A40F00100CF
:10451000A062204600F026FA03E0206A016B2846DC
:10452000884770BD70B505466C6AA06A40F04000CF
:10453000A062E06A40F00400E062204600F014FA55
:1045400070BD70B50446656A284600F00CFA70BD6F
:1045500038B504460025002000902068806800F0EF
:10456000010080BB2068806840F0010021688860FD
:10457000164800681649B0FBF1F0009002E0009880
:10458000401E009000980028F9D101F0A7FB0546D5
:1045900013E001F0A3FB401B02280ED9A06A40F0F3
:1045A0001000A062E06A40F00100E06200BF00205D
:1045B00084F8240000BF012038BD2068806800F026
:1045C00001000028E5D00020F6E7000000000020F0
:1045D00040420F0000BFFEE70346042B15D007DC66
:1045E0007BB1012B0ED0022B0DD0032B12D10BE08F
:1045F000202B0BD0212B0AD0222B09D0232B09D121
:1046000007E008E007E006E005E004E003E002E080
:1046100001E000E000BF00BF0020704700207047AD
:1046200010B500220449054805F0B6FD04490348C9
:1046300005F0ABFD002010BD200100202404002067
:104640001C01002070B504460D462146034805F0C4
:104650009CFD024805F075FD002070BD240400207B
:1046600010B5024800F082FC10BD0000F80C0020DC
:1046700010B5046863604468102C04D10468A2601B
:104680000468E16003E00468A1600468E26010BDB2
:104690007047000070B50546002D52D02D480078B7
:1046A00060B901202B490870012211462A4801F007
:1046B0000FFB322001F043F904F052FF00210846BD
:1046C00004F048FF01222549254805F007F8262176
:1046D000002004F03FFF01222049224804F0FEFFA1
:1046E0001B21002004F036FF01221C491EA004F00B
:1046F000F5FF1021002004F02DFF012217491F486B
:1047000004F0ECFF3121002004F024FF1C48008855
:1047100084B21C49CC710A2094FBF0F030301A4965
:1047200048710A2094FBF0F100FB1140303016492B
:10473000C87101220949144804F0D0FF04F0E4FFD5
:1047400007E000200349087000220121024801F01F
:10475000BFFA70BDD4010020001001408401002088
:1047600094010020F9010020555342282B292020D4
:104770007C205253343835282D290000DD010020DB
:10478000F81500206E010020C201002010B54FF482
:10479000004001F0E3F810BD00BFFEE770470000E5
:1047A00078B5024600230020009000BF92F8240054
:1047B000012801D1022078BD012082F8240000BF29
:1047C000486807281DD21068446B0879401E4FF4D2
:1047D000787595FAA5F5B5FA85F568431F258540E6
:1047E00024EA05000C79641E4FF4787696FAA6F652
:1047F000B6FA86F674430D68A540284314686063D2
:104800003DE048680D281DD21068046B0879C01F70
:104810004FF4787595FAA5F5B5FA85F568431F2527
:10482000854024EA05000C79E41F4FF4787696FA67
:10483000A6F6B6FA86F674430D68A54028431468B8
:1048400020631CE01068C46A08790D384FF478754D
:1048500095FAA5F5B5FA85F568431F25854024EA44
:1048600005000C790D3C4FF4787696FAA6F6B6FA68
:1048700086F674430D68A54028431468E062086812
:104880000A281BD31068C46808780A38382595FAB6
:10489000A5F5B5FA85F568430725854024EA0500A6
:1048A0000C780A3C382696FAA6F6B6FA86F67443D1
:1048B0008D68A54028431468E06017E0106800691F
:1048C0000C78382595FAA5F5B5FA85F56C430725DA
:1048D000A540A8430D78382696FAA6F6B6FA86F6CD
:1048E00075438C68AC402043146820610868102828
:1048F00002D00868112827D1174C1068A0421ED199
:104900001068806800F40000F0B91068806840F416
:1049100000001468A0600868102815D10F480068CE
:104920000F4CB0FBF4F000EB80004000009002E080
:104930000098401E009000980028F9D104E0906A89
:1049400040F020009062012300BF002082F8240084
:1049500000BF18462FE7000000240140000000209F
:1049600040420F0070477047704710B504462068FA
:10497000406800F0200020282FD12068006800F057
:104980000200022829D1A06A00F0100018B9A06A1C
:1049900040F40070A0622068806800F46020B0F5E8
:1049A000602F13D1E06888B92068406820F02000AB
:1049B00021684860A06A20F48070A062A06A00F4B8
:1049C000805018B9A06A40F00100A0622046FFF7AD
:1049D000C9FF6FF01200216808602068406800F08D
:1049E000800080283BD12068006800F00400042883
:1049F00035D1A06A00F0100018B9A06A40F4005048
:104A0000A0622068806800F4E040B0F5E04F0DD06F
:104A10002068406800F48060D0B92068806800F4A5
:104A20006020B0F5602F13D1E06888B92068406835
:104A300020F0800021684860A06A20F48050A062C5
:104A4000A06A00F4807018B9A06A40F00100A0626A
:104A50002046FFF7A3FE6FF00C0021680860206875
:104A6000406800F0400040280FD12068006800F046
:104A7000010050B1A06A40F48030A062204600F0EE
:104A8000C7F86FF001002168086010BD2DE9F04102
:104A90000446002700250026A84614B90120BDE8D9
:104AA000F081A06810B1606900B100BFA06A30B9A0
:104AB0000020E06284F82400204600F0ABF8204695
:104AC000FFF7DEFC0746A06A00F0100000287DD149
:104AD000002FFCD1A06A20F4885040F00200A062B0
:104AE000484AD4E90001904208D1E069B0F5402F6E
:104AF00002D14FF4002002E0E06900E0E0690843E1
:104B0000022292FAA2F2B2FA82F2E16891400843DC
:104B10000643A068B0F5807F02D0A068012802D1CA
:104B20004FF4807000E0002005436069012816D131
:104B3000E06860B9A069401E4FF4604191FAA1F1AC
:104B4000B1FA81F1884040F40060054307E0A06AB3
:104B500040F02000A062E06A40F00100E0622068BE
:104B6000406820F4694028432168486020688068D4
:104B700025490840304321688860A068B0F5807FEF
:104B800002D0A068012802D14FF4807000E000201C
:104B9000B0F5807F09D12069401E4FF4700191FA71
:104BA000A1F1B1FA81F100FA01F82068C06A20F49D
:104BB000700040EA08002168C862206880681349D4
:104BC0000840B0420AD10020E06200E012E0A06A92
:104BD00020F0020040F00100A06210E0A06A20F086
:104BE000020040F01000A062E06A40F00100E062C4
:104BF000012704E0A06A40F01000A06201273846B7
:104C00004DE70000003C0140FDF7E1FFFE0E1FFFF5
:104C10007047000010B586B00446204920688842DD
:104C200039D100BF1E48806940F400701C4988617A
:104C30000846806900F40070019000BF00BF10209A
:104C400002900320039002A9164800F095FE164832
:104C500016490860002048600021144881608021C6
:104C6000C1608900016189004161202181610021C9
:104C7000C16100F0FFFD08B1FFF78EFD00BF0B48DA
:104C80002062446200BF00221146122001F0CBF9DD
:104C9000122001F0BBF906B010BD00000024014055
:104CA000001002400008014008000240F80C0020FB
:104CB0002DE9F04104460D46164600275749206865
:104CC000884203D056492068884205D15348001DC8
:104CD000006800F4702000E0002000287ED100BFB2
:104CE00094F82400012802D10220BDE8F0810120BF
:104CF00084F8240000BF2046FFF72AFC0746002F57
:104D00006DD1A06A40F60161884340F48070A062D2
:104D100043492068884209D14048001D006800F4DA
:104D2000702008B9012002E0002000E0012078B1E5
:104D3000A06A20F48010A0622068406800F48060BF
:104D400000B3A06A20F4005040F48050A06219E043
:104D5000A06A40F48010A06230492068884203D0E5
:104D60002F492068884205D12C48001D006800F4B6
:104D7000806000E0002028B1A06A20F4005040F4D8
:104D80008050A062A06A00F4805020B1E06A20F058
:104D90000600E06201E00020E06200BF002084F82D
:104DA000240000BF1F48216A88621F48216AC86228
:104DB0001E48216A08636FF00200216808602068BD
:104DC000806840F4807021688860226802F14C019C
:104DD00033462A46206A00F077FD01E01AE014E02D
:104DE0002068806800F46020B0F5602F06D120684C
:104DF000806840F4A000216888600CE0206880682A
:104E000040F480102168886005E000BF002084F82D
:104E1000240000E00127384667E700000024014035
:104E200000280140D34400084345000825450008F8
:104E300070B50446002500BF94F82400012801D174
:104E4000022070BD012084F8240000BF2046FFF737
:104E50007FFB0546002D7DD1A06A40F601618843A5
:104E600040F48070A0623F492068884208D13E48E3
:104E7000006800F4702008B9012002E0002000E082
:104E8000012078B1A06A20F48010A06220684068F8
:104E900000F4806000B3A06A20F4005040F4805019
:104EA000A06219E0A06A40F48010A0622E49091F98
:104EB0002068884203D02B492068884204D12A48C0
:104EC000006800F4806000E0002028B1A06A20F4AF
:104ED000005040F48050A062A06A00F4805020B1DD
:104EE000E06A20F00600E06201E00020E06200BF1E
:104EF000002084F8240000BFC01E216808602068DC
:104F0000406840F02000216848602068806800F414
:104F10006020B0F5602F16D112492068884208D170
:104F20001148006800F4702008B9012002E0002058
:104F300000E0012038B12068806840F4A0002168BA
:104F400088600CE006E02068806840F480102168EA
:104F5000886004E000BF002084F8240000BF2846D9
:104F60006FE70000002801400424014010B504460A
:104F7000F8492068884255D9F7480068F54A783AD8
:104F80002168914201D108214AE0F24A643A21683D
:104F9000914201D1802143E0EE4A503A216891428A
:104FA00001D1C9143CE0EB4A3C3A2168914202D15C
:104FB0004FF4004134E0E74A283A2168914202D197
:104FC0004FF400212CE0E34A143A2168914202D1C7
:104FD0004FF4000124E0DF4A2168914201D1090524
:104FE0001EE0DD4A08322168914201D1082117E014
:104FF000D94A1C322168914201D1802110E0D64A61
:1050000030322168914201D1C91409E0D24A4432B8
:105010002168914202D14FF4004101E04FF4002198
:10502000084055E0CB4880380068CA4A783A216881
:10503000914201D108214AE0C64A643A216891426E
:1050400001D1802143E0C34A503A2168914201D105
:10505000C9143CE0BF4A3C3A2168914202D14FF466
:10506000004134E0BB4A283A2168914202D14FF412
:1050700000212CE0B74A143A2168914202D14FF442
:10508000000124E0B34A2168914201D109051EE0E4
:10509000B14A08322168914201D1082117E0AE4A95
:1050A0001C322168914201D1802110E0AA4A30329D
:1050B0002168914201D1C91409E0A74A443221680C
:1050C000914202D14FF4004101E04FF40021084029
:1050D000002873D020680068C0F3C0000028F8D012
:1050E0002068006820F0080021680860994920685D
:1050F000884255D9974978392068884201D10820DB
:105100004AE0944964392068884201D1802043E014
:10511000904950392068884201D1C0143CE08D4943
:105120003C392068884202D14FF4004034E089497C
:1051300028392068884202D14FF400202CE08549AC
:1051400014392068884202D14FF4000024E08149DC
:105150002068884201D100051EE07F49083120689F
:10516000884201D1082017E07B491C312068884221
:1051700001D1802010E0784930312068884201D187
:10518000C01409E0744944312068884202D14FF4C8
:10519000004001E04FF400206F49091D086055E010
:1051A0006C4978392068884201D108204BE0694970
:1051B00064392068884202D1802044E057E0654984
:1051C00050392068884201D1C0143CE061493C3923
:1051D0002068884202D14FF4004034E05D4928390C
:1051E0002068884202D14FF400202CE0594914393C
:1051F0002068884202D14FF4000024E0554920681D
:10520000884201D100051EE05349083120688842D8
:1052100001D1082017E050491C312068884201D193
:10522000802010E04C4930312068884201D1C01400
:1052300009E0494944312068884202D14FF40040D6
:1052400001E04FF40020434980394860606B40F032
:1052500001006063042084F8210000BF002084F86E
:10526000200000BF206B10B12046216B88473949D0
:105270002068884255D938480068364A783A21680B
:10528000914201D104214AE0324A643A21689142B4
:1052900001D1402143E02F4A503A2168914201D187
:1052A00009153CE02B4A3C3A2168914202D14FF467
:1052B000804134E0274A283A2168914202D14FF4D4
:1052C00080212CE0234A143A2168914202D14FF404
:1052D000800124E01F4A2168914201D1C9041EE0E7
:1052E0001D4A08322168914201D1042117E01A4A6F
:1052F0001C322168914201D1402110E0164A30321F
:105300002168914201D1091509E0134A443221680C
:10531000914202D14FF4804101E04FF480210840D6
:1053200059E00C48803800680A4A783A216891426E
:1053300001D104214EE0074A643A2168914201D12B
:10534000402147E0034A503A2168914206D10915AD
:1053500040E000008000024000040240F74A21685B
:10536000914202D14FF4804134E0F44A1432216872
:10537000914202D14FF480212CE0F04A283221687A
:10538000914202D14FF4800124E0EC4A3C32216882
:10539000914201D1C9041DE0E94A2168914201D13D
:1053A000042117E0E64A14322168914201D14021DC
:1053B00010E0E34A28322168914201D1091509E041
:1053C000DF4A3C322168914202D14FF4804101E032
:1053D0004FF48021084080B320680068C0F380004B
:1053E00058B32068006800F0200028B920680068E1
:1053F00020F0040021680860D0493C3120688842D0
:1054000055D9CE493C392068884201D104204AE070
:10541000CA4928392068884201D1402043E0C74961
:1054200014392068884201D100153CE0C349206846
:10543000884203D14FF4804035E094E0BF491431F5
:105440002068884202D14FF480202CE0BB492831EB
:105450002068884202D14FF4800024E0B7493C31F3
:105460002068884201D1C0041DE0B5492068884207
:1054700001D1042017E0B24914312068884201D1DB
:10548000402010E0AE4928312068884201D1001543
:1054900009E0AB493C312068884202D14FF480409A
:1054A00001E04FF48020A649091F086053E0A3499A
:1054B0003C392068884201D1042049E09F492839BD
:1054C0002068884201D1402042E09C49143920687C
:1054D000884201D100153BE098492068884202D1FA
:1054E0004FF4804034E0954914312068884202D15D
:1054F0004FF480202CE0914928312068884202D165
:105500004FF4800024E08D493C312068884201D16D
:10551000C0041DE08A492068884201D1042017E0B8
:10552000874914312068884201D1402010E0844925
:1055300028312068884201D1001509E080493C31BA
:105540002068884202D14FF4804001E04FF480206F
:105550007A4944394860112084F82100E06A10B18A
:105560002046E16A884775493C312068884255D910
:10557000734808380068714A3C3A2168914201D169
:10558000022149E06D4A283A2168914201D1202147
:1055900042E06A4A143A2168914201D149153BE040
:1055A000664A2168914202D14FF4005134E0634AC7
:1055B00014322168914202D14FF400312CE05F4A4D
:1055C00028322168914202D14FF4001124E05B4A55
:1055D0003C322168914201D189041DE0584A21687A
:1055E000914201D1022117E0554A143221689142BB
:1055F00001D1202110E0524A28322168914201D184
:10560000491509E04E4A3C322168914202D14FF4DB
:10561000005101E04FF40031084054E0474844385D
:105620000068464A3C3A2168914201D1022149E092
:10563000424A283A2168914201D1202142E03F4A62
:10564000143A2168914201D149153BE03B4A216857
:10565000914202D14FF4005134E0384A14322168AB
:10566000914202D14FF400312CE0344A28322168B3
:10567000914202D14FF4001124E0304A3C322168BB
:10568000914201D189041DE02D4A2168914201D146
:10569000022117E02A4A14322168914201D12021C7
:1056A00010E0274A28322168914201D1491509E0CA
:1056B000234A3C322168914202D14FF4005101E06B
:1056C0004FF40031084080B320680068C0F3400008
:1056D00058B32068006800F0200028B920680068EE
:1056E00020F002002168086014493C31206888429B
:1056F00058D912493C392068884201D102204DE036
:105700000E4928392068884201D1202046E00B4903
:1057100014392068884201D140153FE007492068CC
:10572000884203D14FF4005038E09EE00349143121
:105730002068884206D14FF400302FE04400024038
:105740000804024049492068884202D14FF4001001
:1057500024E0464914312068884201D180041DE0CC
:1057600043492068884201D1022017E040491431A2
:105770002068884201D1202010E03D49283120686E
:10578000884201D1401509E039493C3120688842FE
:1057900002D14FF4005001E04FF400303449091FAA
:1057A000086053E0314964392068884201D1022001
:1057B00049E02E4950392068884201D1202042E03A
:1057C0002A493C392068884201D140153BE02749ED
:1057D00028392068884202D14FF4005033E0234931
:1057E00014392068884202D14FF400302BE01F4961
:1057F0002068884202D14FF4001024E01B49143184
:105800002068884201D180041DE01949206888423F
:1058100001D1022017E0164914312068884201D1D5
:10582000202010E0124928312068884201D140151B
:1058300009E00F493C312068884202D14FF4005002
:1058400001E04FF4003009496C394860606B6063D7
:10585000012084F8210000BF002084F8200000BF50
:10586000A06A10B12046A16A884710BD6C000240B2
:10587000080402400146002209B90120704791F84E
:10588000210010B9002081F82000022081F82100B9
:105890000868026843F6F0708243D1E901031843B7
:1058A000CB6818430B6918434B6918438B6918433D
:1058B000CB69184302430868026000204863012056
:1058C00081F821000020D9E72DE9F04104460D467A
:1058D00016461F4600BF94F82000012802D102207E
:1058E000BDE8F081012084F8200000BF022084F888
:1058F00021002068006820F00100216808603B4614
:10590000324629462046FEF7B3FE2068006840F084
:105910000200216808602068006840F004002168E7
:1059200008602068006840F008002168086020686E
:10593000006840F00100216808600020D0E731B520
:10594000002400F0CBF9044600BF00F0C7F9001BAB
:1059500000998842F9D338BD7047000010B504465D
:1059600004480068204020B1024804602046FFF748
:10597000F3FF10BD140401402DE9F847024600244E
:10598000002000258446002700237BE14FF001081A
:1059900008FA03F4D1F8008008EA0400A0427DD19F
:1059A000DFF8ECA2D1F80480A8EB0A09D0453AD080
:1059B00014DCB8F1030F50D009DCB8F1000F31D07E
:1059C000B8F1010F1CD0B8F1020F49D120E0B8F1B5
:1059D000110F18D0B8F1120F42D11EE0B9F5881F8F
:1059E00025D006DCB9F5803F20D0B9F5801F37D12E
:1059F0001AE0B9F5001F18D0B9F5041F30D117E02F
:105A0000D1F80CC02DE0D1F80C8008F1040C28E08E
:105A1000D1F80C8008F1080C23E0D1F80C8008F1D3
:105A20000C0C1EE000BF00BF00BF00BF00BF00BFE6
:105A3000D1F80880B8F1000F02D14FF0040C0BE050
:105A4000D1F80880B8F1010F03D14FF0080C1461B0
:105A500002E04FF0080C546103E04FF0000C00E04E
:105A600000BF00BFFF2801D8904601E002F1040802
:105A70004646FF2802D84FEA830803E0A3F108084E
:105A80004FEA88084746D6F800804FF00F0909FA18
:105A900007F928EA09080CFA07F900E07AE048EA71
:105AA0000908C6F80080D1F8048008F08058B8F1E1
:105AB000805F6FD100BFDFF8DC81D8F8188048F034
:105AC0000108DFF8D091C9F81880C846D8F81880C6
:105AD00008F00108CDF8008000BF00BF4FEAB938D8
:105AE0004FEA930958F829504FEA83784FEA18791A
:105AF0004FF00F0808FA09F825EA0805DFF8988141
:105B0000424502D14FF0000824E0DFF89081424581
:105B100002D14FF001081DE0DFF88481424502D137
:105B20004FF0020816E0DFF87C81424502D14FF0C9
:105B300003080FE0DFF87081424502D14FF00408FE
:105B400008E0DFF86881424502D14FF0050801E026
:105B50004FF006084FEA83794FEA197908FA09F8F5
:105B600048EA0505DFF848814FEA930948F82950CB
:105B7000D1F8048008F48038B8F5803F0BD1DFF805
:105B80003481D8F8008048EA0008DFF82891C9F885
:105B900000800AE075E0DFF81C81D8F8008028EA70
:105BA0000008DFF81091C9F80080D1F8048008F4EB
:105BB0000038B8F5003F0ED1DFF8F88008F104088E
:105BC000D8F8008048EA0008DFF8E89009F10409F5
:105BD000C9F800800DE0DFF8DC8008F10408D8F88F
:105BE000008028EA0008DFF8CC9009F10409C9F820
:105BF0000080D1F8048008F48018B8F5801F0ED119
:105C0000DFF8B08008F10808D8F8008048EA0008FA
:105C1000DFF8A09009F10809C9F800800DE0DFF86D
:105C2000948008F10808D8F8008028EA0008DFF816
:105C3000849009F10809C9F80080D1F8048008F4BB
:105C40000018B8F5001F0ED1DFF8688008F10C08C5
:105C5000D8F8008048EA0008DFF8589009F10C09EC
:105C6000C9F800800DE0DFF84C8008F10C08D8F886
:105C7000008028EA0008DFF83C9009F10C09C9F817
:105C800000805B1C102BFFF481AEBDE8F88700009C
:105C9000000011100010024000080140000C0140FB
:105CA000001001400014014000180140001C014098
:105CB0000800014000040140024693680B400BB10C
:105CC000012000E000207047C2684A40C26070476F
:105CD0000AB1016101E00B040361704701480068EB
:105CE000704700000400002070B50446002500261F
:105CF0000CB9012070BD94F8350028B9002084F853
:105D00003400204600F0E6F8242084F835002068AE
:105D1000006820F001002168086000F049FF064695
:105D20001C48B6FBF0F5206845601B496068884256
:105D300001D8681C07E04FF4967068434FF47A71FD
:105D4000B0FBF1F0401C216808623146204602F0A9
:105D500095FB2168C861D4E9070108432168086000
:105D6000D4E90310084321688860D4E90501084399
:105D70002168C8602068006840F001002168086060
:105D80000020A063202084F83500002084F836002D
:105D900000BFAFE740420F00A08601002DE9F84F99
:105DA0000446884691469A460AADE0CD94F83500FF
:105DB000202877D105B116B90120BDE8F88F42F24D
:105DC000107301224249204602F00CFC08B1022067
:105DD000F3E700BF94F83400012801D10220ECE77A
:105DE000012084F8340000BF2068006820F40060BF
:105DF00021680860212084F83500402084F83600AE
:105E00000020A06353464A4641462046009702F0D0
:105E100081FB80B1A06B042806D100BF002084F86C
:105E2000340000BF0120C8E700BF002084F8340020
:105E300000BF0320C1E723E03946204602F098FC6A
:105E400060B1A06B042807D12068006840F400709E
:105E5000216808600120B0E70320AEE715F8010BC8
:105E600021680861701E86B220684069C0F3800016
:105E700030B12EB115F8010B21680861701E86B291
:105E8000002ED9DC3946204602F072FC68B1A06BC6
:105E9000042808D12068006840F400702168086078
:105EA00001208AE712E0032087E72068006840F4B9
:105EB000007021680860202084F83500002084F8F4
:105EC000360000BF84F8340000BF76E7022074E794
:105ED0000200100010B586B004460F4920688842C1
:105EE00017D1C0200290122003900320059002A930
:105EF0000A48FFF741FD00BF0948C06940F400109F
:105F00000749C8610846C06900F40010019000BF4D
:105F100000BF06B010BD000000540040000C01405E
:105F20000010024002480068401C014908607047A8
:105F30000400002010B50848006840F01000064931
:105F40000860032000F0AEF8002000F007F800F031
:105F500017F8002010BD00000020024070B5044674
:105F600000F020FE4FF47A71B0FBF1F5284601F005
:105F7000F2FD00222146501E00F055F8002070BDB1
:105F800008B500BF1F48806940F001001D498861C5
:105F90000846806900F00100009000BF00BF0320A8
:105FA00000F080F8002211466FF00B0000F03BF883
:105FB000002211466FF00A0000F035F80022114669
:105FC0006FF0090000F02FF800221146501F00F07A
:105FD0002AF800221146101F00F025F80022114671
:105FE000901E00F020F800221146501E00F01BF811
:105FF0000548406820F0E06040F0007002494860C9
:1060000008BD0000001002400000014000BF00F089
:106010001F02012191404209920002F1E022C2F8E0
:10602000001100BF70472DE9F05F80460D4616460F
:10603000002702F0D9FE074639462A46334601F0CA
:106040000700C0F1070ABAF1040F02D94FF0040AA1
:1060500001E0C0F1070AD14600F1040ABAF1070FC6
:1060600002D24FF0000A01E0A0F1030AD4464FF03B
:10607000010A0AFA09FAAAF1010A0AEA020A0AFA64
:106080000CFA4FF0010B0BFA0CFBABF1010B0BEA16
:10609000030B4AEA0B042146404602F0ADFEBDE880
:1060A000F09F000000BF00F00702064B19684FF692
:1060B000FF031940044B0B4343EA0221014B1960D3
:1060C00000BF70470CED00E00000FA0570B5054612
:1060D0000C46002104F08000802806D104F07F06E1
:1060E00005F1280000EB461103E005F5027000EB16
:1060F00044111AB9002088728B8004E00120887254
:10610000CB80180C0881002070BD704770B5044624
:106110000D4604F1280101EB45114A692946D4F8DE
:106120001C0404F0FDFA70BD70B504460D4604F57C
:10613000027101EB45114A692946D4F81C0404F0A8
:106140005CFB70BD70B504460D46002605F080006E
:10615000802806D105F07F0104F1280000EB4116EC
:1061600005E005F07F0104F5027000EB411605F033
:106170007F00307005F08000C009707000BF94F897
:10618000E803012801D1022070BD012084F8E80352
:1061900000BF3146206805F076F800BF002084F883
:1061A000E80300BF00BFEFE770B504460D460026C8
:1061B00005F08000802806D105F07F0104F1280059
:1061C00000EB411603E004F5027000EB45160020D9
:1061D000B07005F07F003070C5F3C010707000BF64
:1061E00094F8E803012801D1022070BD012084F851
:1061F000E80300BF3146206805F06EF900BF0020BB
:1062000084F8E80300BF00BFEFE7024601F07F0318
:1062100002F5027000EB4310808B80B270472DE9CD
:10622000F04704460D46174698464FF000090026F1
:1062300005F08000802806D105F07F0104F12800D8
:1062400000EB411605E005F07F0104F5027000EB5C
:10625000411605F07F00307005F08000C0097070B5
:10626000376186F8038000BF94F8E803012802D163
:106270000220BDE8F087012084F8E80300BF314622
:10628000206804F027FE00BF002084F8E80300BF68
:106290004846EEE72DE9F04104460E46174698467B
:1062A000002506F07F0104F5027000EB41156F61D7
:1062B000C5F818800020E861687006F07F0028703B
:1062C00000BF94F8E803012802D10220BDE8F08164
:1062D000012084F8E80300BF06F07F0020B92946BA
:1062E000206805F096F903E02946206805F091F949
:1062F00000BF002084F8E80300BF00BFE6E770B5E8
:1063000004460D46002605F08000802806D105F0E1
:106310007F0104F1280000EB411603E004F5027050
:1063200000EB45160120B07005F07F003070C5F31A
:10633000C010707000BF94F8E803012801D102205A
:1063400070BD012084F8E80300BF3146206805F0E5
:106350001DF905F07F0020B904F57B71206805F078
:10636000B8F800BF002084F8E80300BF00BFE7E7EB
:106370002DE9F04104460E4617469846002506F0E2
:106380007F0104F1280000EB41156F61C5F818800A
:106390000020E8610120687006F07F00287000BFCF
:1063A00094F8E803012802D10220BDE8F081012021
:1063B00084F8E80300BF06F07F0020B92946206872
:1063C00005F027F903E02946206805F022F900BF0F
:1063D000002084F8E80300BF00BFE6E770B504467C
:1063E0000025206805F0C2FA00F40040B0F5004F27
:1063F00002D1204602F014FD206805F0B7FA00F43F
:106400008060B0F5806F0ED12068B0F8440020F4B1
:1064100080602168A1F84400204600F041F9002185
:10642000204600F060F9206805F0A0FA00F48040F2
:10643000B0F5804F07D12068B0F8440020F48040C8
:106440002168A1F84400206805F090FA00F400509B
:10645000B0F5005F07D12068B0F8440020F4005088
:106460002168A1F84400206805F080FA00F480500B
:10647000B0F5805F17D12068B0F8400020F004002C
:106480002168A1F840004FF43D452068A0F8405035
:10649000204600F01AF92068B0F8440020F480503B
:1064A0002168A1F84400206805F060FA00F400605B
:1064B000B0F5006F20D12068B0F8440020F40060EF
:1064C0002168A1F844002068B0F8400040F00800BE
:1064D0002168A1F840002068B0F8400040F00400B6
:1064E0002168A1F84000206805F040FAC0F30030B0
:1064F00010B9204600F03AF9206805F037FA00F4A8
:106500000070B0F5007F0AD12068B0F8440020F494
:1065100000702168A1F84400204600F0DDF82068F2
:1065200005F024FA00F48070B0F5807F07D1206870
:10653000B0F8440020F480702168A1F8440070BDD8
:1065400030B585B00446002514B9012005B030BD32
:1065500094F8E90328B9002084F8E803204600F005
:106560007DF8032084F8E903206804F0A7FF1422D3
:1065700004F110016846FDF707FE94E80F0004F0EF
:106580007EFE0021206805F00AFA002525E00121A1
:1065900004F1280000EB4510417004F1280000EBE5
:1065A0004510057004F1280000EB4510858100219D
:1065B00004F1280000EB4510C17004F1280000EB45
:1065C0004510016104F1280000EB4510416104F120
:1065D000280000EB451081616D1C0F2DD7D30025DD
:1065E00024E0002104F5027000EB4510417004F531
:1065F000027000EB4510057004F1280000EB451017
:10660000858104F5027000EB4510C17004F502703D
:1066100000EB4510016104F5027000EB451041618B
:1066200004F5027000EB451081616D1C0F2DD8D36D
:10663000142204F110016846FDF7A6FD94E80F004E
:1066400004F031FF002084F82400012084F8E903DD
:10665000206804F025FF002078E7000038B50446E4
:106660000D492068884215D100BF0C48C06940F42C
:1066700000000A49C8610846C06900F400000090A3
:1066800000BF00BF002211461420FFF7CCFC1420ED
:10669000FFF7BCFC38BD0000005C00400010024069
:1066A00070B504460125A068022801D100BF01E0B1
:1066B000012500BF00BF2946D4F81C0404F0A0F94E
:1066C000D4F81C0404F062F970BD10B50446D4F887
:1066D0001C0404F07DF910BD10B50446D4F81C0468
:1066E00004F07DF910BD70B504460D4600BF94F866
:1066F000E803012801D1022070BD012084F8E803DD
:1067000000BF84F824502946206805F04BF900BFEB
:10671000002084F8E80300BF00BFEDE710B5044691
:1067200004F57B71D4F81C0404F078F910BD10B5A1
:10673000044600BF94F8E803012801D1022010BDEF
:10674000012084F8E80300BF01212046FFF7DDFCAB
:10675000206804F0A2FE206805F0F4F800BF0020D5
:1067600084F8E80300BF00BFE9E7000010B5044665
:10677000D4F81C0404F09BF9A06928B10348006810
:1067800040F006000149086010BD000010ED00E077
:10679000F8B5044600260025207800F00100002806
:1067A00077D000BF5648C06940F080505449C86156
:1067B0000846C06900F08050009000BF00BF5148FB
:1067C000006840F480704F490860FFF787FA06467A
:1067D00006E0FFF783FA801B642801D90320F8BD87
:1067E0004848006800F480700028F2D04448006AED
:1067F00000F44075002D5ED0A08800F44070A842DF
:1068000059D03F48006A20F440750120010491FAF4
:10681000A1F1B1FA81F13C4A02EB8101C1F8000417
:1068200000204FF4803191FAA1F1B1FA81F102EB2D
:106830008101C1F800043248056205F0010048B347
:10684000FFF74CFA064608E0FFF748FA801B41F2D2
:106850008831884201D90320C1E74020022191FA02
:10686000A1F1B1FA81F108430121B1EB601F02D11E
:106870002348006811E04020022191FAA1F1B1FA09
:1068800081F108430221B1EB601F04D11C48006A6A
:1068900003E018E00FE01A48406A4021022292FA11
:1068A000A2F2B2FA82F2114301F01F0201219140DB
:1068B00008400028C8D01248006A20F4407061687F
:1068C00008430F490862207800F00200022807D12F
:1068D0000B48406820F44040A168084308494860DC
:1068E000207800F01000102807D10548406820F4F7
:1068F0008000616908430249486000206FE700009A
:1069000000100240007000400000424270B5044692
:106910000D4600269F48006800F00700A8420ED2EE
:106920009C48006820F0070028439A490860084600
:10693000006800F00700A84201D0012070BD207857
:1069400000F00200022807D19348406820F0F000D0
:10695000A168084390494860207800F001000028B1
:106960007CD0606801282DD12020010391FAA1F18B
:10697000B1FA81F108430121B1EB601F02D18648D1
:1069800000680FE02020010391FAA1F1B1FA81F132
:1069900008430221B1EB601F02D17F48006A01E089
:1069A0007D48406A20210A0392FAA2F2B2FA82F2EA
:1069B000114301F01F02012191400840002860D1DD
:1069C0000120BBE7606802282CD12020010591FA44
:1069D000A1F1B1FA81F108430121B1EB601F02D1AD
:1069E0006D4800680FE02020010591FAA1F1B1FA8D
:1069F00081F108430221B1EB601F02D16648006AB1
:106A000001E06548406A20210A0592FAA2F2B2FA32
:106A100082F2114301F01F0201219140084078BB2E
:106A200001208BE72020022191FAA1F1B1FA81F136
:106A300008430121B1EB601F02D15748006810E004
:106A40002020022191FAA1F1B1FA81F1084302213B
:106A5000B1EB601F03D15048006A02E054E04E4899
:106A6000406A2021022292FAA2F2B2FA82F2114383
:106A700001F01F0201219140084008B901205DE7A3
:106A8000FFE74548406820F0030061680843424939
:106A90004860FFF723F906466068012810D108E036
:106AA000FFF71CF9801B41F28831884201D903208D
:106AB00044E73948406800F00C000428F0D123E096
:106AC0006068022810D108E0FFF708F9801B41F246
:106AD0008831884201D9032030E72F48406800F010
:106AE0000C000828F0D10FE008E0FFF7F7F8801B52
:106AF00041F28831884201D903201FE726484068C7
:106B000000F00C000028F0D12248006800F00700D7
:106B1000A8420ED91F48006820F0070028431D49ED
:106B200008600846006800F00700A84201D0012074
:106B300004E7207800F00400042807D116484068D4
:106B400020F4E060E168084313494860207800F0D1
:106B50000800082808D11048406820F460502169D6
:106B600040EAC1000C49486000F04EF80A49496803
:106B700001F0F001F02292FAA2F2B2FA82F2D140D0
:106B8000064A515CC840064908600020FFF7E6F954
:106B90000020D3E60020024000100240B8C50008E3
:106BA000000000200148006870470000000000203D
:106BB00000B5FFF7F7FF0749496801F4E0614FF4BA
:106BC000E06292FAA2F2B2FA82F2D140024A515C39
:106BD000C84000BD00100240C8C5000800B5FFF75E
:106BE000E1FF0749496801F460514FF4605292FA9D
:106BF000A2F2B2FA82F2D140024A515CC84000BD12
:106C000000100240C8C50008F0B585B00FF28C0C2A
:106C10009CE8E01001A8A0E8E01024A52D680095EC
:106C200000210024002200230020214D696801F08A
:106C30000C056DB3042D02D0082D28D101E01D48AC
:106C400028E001F470154FF4701696FAA6F6B6FA1D
:106C500086F6F54001AE735D01F4803595B1144DB3
:106C60006D6805F400354FF4003696FAA6F6B6FACC
:106C700086F6F5401DF805400E4DB5FBF4F505FB15
:106C800003F202E00C4D03FB05F2104602E000BFE8
:106C90000A4800BF00BF05B0F0BD000002030405B4
:106CA000060708090A0B0C0D0E0F10100102000058
:106CB000001002400024F40000093D0000127A0098
:106CC00038B504460025207800F0010000287CD06B
:106CD000F848406800F00C0004280CD0F5484068E3
:106CE00000F00C00082837D1F248406800F48030EA
:106CF000B0F5803F30D12020010391FAA1F1B1FA23
:106D000081F108430121B1EB601F02D1E94800681D
:106D10000FE02020010391FAA1F1B1FA81F10843BB
:106D20000221B1EB601F02D1E248006A01E0E148B4
:106D3000406A20210A0392FAA2F2B2FA82F21143C7
:106D400001F01F020121914008400028BFD0606877
:106D500000283AD1012038BD00BF6068B0F5803FFF
:106D600006D1D448006840F48030D249086028E059
:106D7000606858B9CF48006820F48030CD49086079
:106D80000846006820F4802008601AE06068B0F5CA
:106D9000A02F0BD1C748006840F48020C549086087
:106DA0000846006840F4803008600AE0C148006886
:106DB00020F48030BF4908600846006820F4802035
:106DC000086000BF6068C8B300E06FE0FEF786FFB0
:106DD000054606E0FEF782FF401B642801D9032028
:106DE000B9E72020010391FAA1F1B1FA81F108433A
:106DF0000121B1EB601F02D1AE4800680FE02020F6
:106E0000010391FAA1F1B1FA81F108430221B1EB3A
:106E1000601F02D1A748006A01E0A648406A20210D
:106E20000A0392FAA2F2B2FA82F2114301F01F02AF
:106E30000121914008400028CCD037E0FFE7FEF761
:106E40004DFF054606E0FEF749FF401B642801D9C7
:106E5000032080E72020010391FAA1F1B1FA81F12A
:106E600008430121B1EB601F02D1924800680FE096
:106E70002020010391FAA1F1B1FA81F10843022126
:106E8000B1EB601F02D18B48006A01E08948406A7B
:106E900020210A0392FAA2F2B2FA82F2114301F01F
:106EA0001F020121914008400028CCD1207800F039
:106EB000020002284ED17F48406800F00C0050B11B
:106EC0007C48406800F00C00082844D179484068AC
:106ED00000F4803078BB2020022191FAA1F1B1FAB0
:106EE00081F108430121B1EB601F02D171480068B4
:106EF0000FE02020022191FAA1F1B1FA81F10843BB
:106F00000221B1EB601F02D16A48006A01E06948C2
:106F1000406A2021022292FAA2F2B2FA82F21143CE
:106F200001F01F0201219140084028B12069012889
:106F300002D001200FE70EE05E48006820F0F80064
:106F4000F82292FAA2F2B2FA82F261699140084301
:106F50005849086091E02069F0B3012090FAA0F14F
:106F6000B1FA81F1544A42F82100FEF7B7FE054616
:106F700006E0FEF7B3FE401B022801D90320EAE633
:106F80002020022191FAA1F1B1FA81F108430121F7
:106F9000B1EB601F02D1474800680FE020200221BA
:106FA00091FAA1F1B1FA81F108430221B1EB601F1E
:106FB00002D14048006A01E03E48406A2021022296
:106FC00092FAA2F2B2FA82F2114301F01F020121F9
:106FD00091400840002800E00FE0CAD03548006822
:106FE00020F0F800F82292FAA2F2B2FA82F2616975
:106FF000914008432F4908603FE00020012191FAA9
:10700000A1F1B1FA81F12C4A42F82100FEF766FEA7
:10701000054606E0FEF762FE401B022801D9032068
:1070200099E62020022191FAA1F1B1FA81F10843F9
:107030000121B1EB601F02D11E4800680FE0202043
:10704000022191FAA1F1B1FA81F108430221B1EBD9
:10705000601F02D11748006A01E01648406A2021EB
:10706000022292FAA2F2B2FA82F2114301F01F0256
:107070000121914008400028CCD1207800F0080080
:1070800008284BD1A069A8B3012191FAA1F0B0FA68
:1070900080F0094A02EB8000C0F88014FEF71EFE63
:1070A00005460BE0FEF71AFE401B022806D9032016
:1070B00051E6000000100240000042426020022120
:1070C00091FAA1F1B1FA81F108430121B1EB601FFE
:1070D00002D1F948006810E06020022191FAA1F184
:1070E000B1FA81F108430221B1EB601F03D1F248EC
:1070F000006A02E013E0F048406A6021022292FA3E
:10710000A2F2B2FA82F2114301F01F020121914072
:1071100008400028C6D00120FEF711FC41E0002005
:10712000012191FAA1F1B1FA81F1E44A02EB810166
:10713000C1F88004FEF7D2FD054606E0FEF7CEFD5D
:10714000401B022801D9032005E66020022191FAA4
:10715000A1F1B1FA81F108430121B1EB601F02D125
:10716000D54800680FE06020022191FAA1F1B1FA40
:1071700081F108430221B1EB601F02D1CE48006AC1
:1071800001E0CD48406A6021022292FAA2F2B2FAEE
:1071900082F2114301F01F020121914008400028B2
:1071A000CCD1207800F00400042875D100BFC2487B
:1071B000C06940F08050C049C8610846C06900F00D
:1071C0008050009000BF00BFBD48006840F4807050
:1071D000BB490860FEF782FD054606E0FEF77EFD2E
:1071E000401B642801D90320B5E5B548006800F4C8
:1071F00080700028F2D000BFE068012806D1AE48B8
:10720000006A40F00100AC49086227E0E06858B924
:10721000A948006A20F00100A74908620846006AF0
:1072200020F00400086219E0E06805280BD1A248AC
:10723000006A40F00400A04908620846006A40F075
:10724000010008620AE09C48006A20F001009A49A7
:1072500008620846006A20F00400086200BFE06887
:10726000D0B3FEF73BFD054608E0FEF737FD401BB7
:1072700041F28831884201D903206CE54020022187
:1072800091FAA1F1B1FA81F108430121B1EB601F3C
:1072900003D18948006810E058E04020022191FAAB
:1072A000A1F1B1FA81F108430221B1EB601F02D1D3
:1072B0008148006A01E08048406A4021022292FA37
:1072C000A2F2B2FA82F2114301F01F0201219140B1
:1072D00008400028C9D039E0FFE7FEF7FFFC05466B
:1072E00008E0FEF7FBFC401B41F28831884201D9DF
:1072F000032030E54020022191FAA1F1B1FA81F199
:1073000008430121B1EB601F02D16B4800680FE018
:107310004020022191FAA1F1B1FA81F10843022142
:10732000B1EB601F02D16448006A01E06248406A24
:107330004021022292FAA2F2B2FA82F2114301F043
:107340001F020121914008400028CAD1E0690028AD
:1073500073D05948406800F00C0008286ED0E069EE
:1073600002286CD100204FF0807191FAA1F1B1FA9E
:1073700081F1524A42F82100FEF7B0FC054606E0D2
:10738000FEF7ACFC401B022801D90320E3E42020D7
:10739000010591FAA1F1B1FA81F108430121B1EBA4
:1073A000601F02D1444800680FE02020010591FAD7
:1073B000A1F1B1FA81F108430221B1EB601F02D1C2
:1073C0003D48006A01E03C48406A20210A0592FAE3
:1073D000A2F2B2FA82F2114301F01F0201219140A0
:1073E00008400028CCD1206AB0F5803F07D1324850
:1073F000406820F40030A16808432F494860D4E970
:10740000080108432C49496821F4741108432A49AA
:1074100048600121080690FAA0F0B0FA80F0274AEF
:1074200042F82010FEF75AFC054609E0FEF756FC2C
:10743000401B022804D903208DE479E076E02CE09B
:107440002020010591FAA1F1B1FA81F1084301214F
:10745000B1EB601F02D1184800680FE02020010541
:1074600091FAA1F1B1FA81F108430221B1EB601F59
:1074700002D11148006A01E00F48406A20210A0544
:1074800092FAA2F2B2FA82F2114301F01F02012134
:10749000914008400028C9D04AE000204FF0807198
:1074A00091FAA1F1B1FA81F1044A42F82100FEF704
:1074B00015FC05460DE000000010024000004242AD
:1074C00000700040FEF70AFC401B022801D903208F
:1074D00041E42020010591FAA1F1B1FA81F10843BC
:1074E0000121B1EB601F02D1124800680FE020209B
:1074F000010591FAA1F1B1FA81F108430221B1EB42
:10750000601F02D10B48006A01E00A48406A20214E
:107510000A0592FAA2F2B2FA82F2114301F01F02B6
:107520000121914008400028CCD101E0012012E463
:10753000002010E40010024010B504460CB90120F0
:1075400010BD94F8510010B9204600F03BF802201D
:1075500084F851002068006820F04000216808602D
:10756000D4E901010843E1680843216908436169DE
:107570000843218B01F400710843E1690843216A43
:107580000843A16A0843216808600421A06901EA50
:107590001040616A0843216848602168E06A086118
:1075A0002068C06920F400602168C8610020044997
:1075B00008706065012084F851000020C0E70000D9
:1075C0000800002010B586B004461449206888429F
:1075D00022D100BF1248C06940F480401049C86100
:1075E0000846C06900F48040019000BF00BF4FF41E
:1075F00020400290022003900320059002A9094830
:10760000FEF7BAF94FF480400290002003900490F6
:1076100002A90448FEF7B0F906B010BD00380040DA
:1076200000100240000C0140F8B504460E46154615
:107630001F4694F85100012874D106B10DB90120FC
:10764000F8BD00BF94F85000012801D10220F7E7EF
:10765000012084F8500000BF122084F8510000205F
:1076600060652663A586E586E064A064A063A087C4
:10767000E087A06AB0F5005F0DD100BF2068006808
:1076800020F40050216808602068006840F4005031
:107690002168086000BFA068B0F5004F05D12068E0
:1076A000006840F48040216808602068006800F0AD
:1076B0004000402805D02068006840F04000216864
:1076C0000860E06878BB606810B1E08E012808D1DE
:1076D000216B481C206308782168C860E08E401E3A
:1076E000E08611E03B4600220221204601F048FEE0
:1076F00008B10320A4E7216B481C206308782168A7
:10770000C860E08E401EE086E08E0028EADCA06AB9
:10771000B0F5005F38D12068006840F480502168DF
:10772000086031E05EE0FFE7606810B1E08E01289C
:1077300009D1206B00882168C860206B801C206301
:10774000E08E401EE08612E03B46002202212046E9
:1077500001F016FE08B1032072E7206B0088216853
:10776000C860206B801C2063E08E401EE086E08EA7
:107770000028E9DCA06AB0F5005F05D12068006848
:1077800040F48050216808603B46002202212046D8
:1077900001F0F6FD28B1606D40F010006065032037
:1077A0004EE73B4601228021204601F0E9FD28B149
:1077B000606D40F010006065032041E7A06840B9AB
:1077C00000BF2068C068009020688068009000BFFB
:1077D00000BF012084F8510000BF002084F8500051
:1077E00000BF2DE702202BE72DE9F84304460E46A3
:1077F00017461D46DDF820800020009094F85100C7
:10780000012803D094F85100222876D10EB107B197
:1078100015B90120BDE8F88300BF94F85000012895
:1078200001D10220F6E7012084F8500000BF94F84F
:107830005100012802D1322084F8510000206065F7
:10784000A763A587E5872663A586E586A064E0642F
:10785000A06AB0F5005F0DD100BF2068006820F479
:107860000050216808602068006840F400502168DA
:10787000086000BF2068006800F04000402805D084
:107880002068006840F0400021680860E068B0F5BA
:10789000006F75D1606830B16068B0F5827F0CD13F
:1078A000E08E012809D1206B00882168C860206B18
:1078B000801C2063E08E401EE086E08EF0B9A06A56
:1078C000B0F5005F05D12068006840F48050216861
:1078D0000860434600220121204601F051FD08B115
:1078E000032097E72068C068A16B0880A06B801C0C
:1078F000A063E08F401EE087C7E015E131E043461A
:1079000000220221204601F03BFD08B1032081E75F
:10791000206B00882168C860206B801C2063E08E8B
:10792000401EE086E08E48B9A06AB0F5005F05D140
:107930002068006840F480502168086043460022B7
:107940000121204601F01CFD08B1032062E72068F8
:10795000C068A16B0880A06B801CA063E08F401EF4
:10796000E087E08E0028CADC60680028C4D1434666
:1079700000220121204601F003FD10B1032049E758
:107980000AE02068C068A16B0880A06B801CA0631F
:10799000E08F401EE08778E0606830B16068B0F545
:1079A000827F0BD1E08E012808D1216B481C206317
:1079B00008782168C860E08E401EE086E08ED0B96D
:1079C000A06AB0F5005F05D12068006840F48050DF
:1079D00021680860434600220121204601F0D0FCC6
:1079E00008B1032016E72068C068A16B0870E08F1B
:1079F000401EE08749E030E0434600220221204655
:107A000001F0BEFC08B1032004E7216B481C206391
:107A100008782168C860E08E401EE086E08E48B994
:107A2000A06AB0F5005F05D12068006840F480507E
:107A300021680860434600220121204601F0A0FC95
:107A400008B10320E6E62068C068C1B2A26B501CF2
:107A5000A0631170E08F401EE087E08E0028CBDC31
:107A6000606890B9434600220121204601F088FC5D
:107A700008B10320CEE62068C068C1B2A26B501CDA
:107A8000A0631170E08F401EE087A06AB0F5005F30
:107A900012D1434600220121204601F071FC28B199
:107AA000606D40F0020060650320B3E62068C068A6
:107AB00080B20090BDF8000043460122802120469C
:107AC00001F05EFC28B1606D40F01000606503209D
:107AD000A0E6012084F85100A06AB0F5005F1DD136
:107AE00020688068C0F30010C0B1606D40F00200F3
:107AF000606500BF2068006820F4005021680860BD
:107B00002068006840F400502168086000BF00BF92
:107B1000002084F8500000BF01207BE600BF002059
:107B200084F8500000BF75E6022073E6042808D1EF
:107B30004FF0E021096941F004014FF0E0221161AA
:107B400007E04FF0E021096921F004014FF0E02245
:107B500011617047704770B504462546681EB0F144
:107B6000807F01D301200FE0681E4FF0E0214861C3
:107B70000F214FF0FF3001F03FF900204FF0E021DE
:107B8000886107200861002070BD10B5FFF7E2FF93
:107B900010BD70477047024600BF92F838000128B8
:107BA00001D102207047012082F8380000BF022076
:107BB00082F839001068406820F07000136858603F
:107BC000106840680B681843136858601068806834
:107BD00020F0800013689860106880684B68184334
:107BE00013689860012082F8390000BF002082F8F5
:107BF000380000BF00BFD5E710B504460CB901201E
:107C000010BD94F8390028B9002084F838002046C7
:107C100000F00CF8022084F83900211D206801F0E2
:107C200057FE012084F839000020E9E710B586B03E
:107C300004462049206888421FD100BF1E48C06901
:107C400040F008001C49C8610846C06900F00800FF
:107C5000019000BF00BF0520029000200390049017
:107C600002A91648FDF788FE002211463220FEF7D1
:107C7000DAF93220FEF7CAF919E011492068884282
:107C800015D100BF0C48C06940F010000A49C86116
:107C90000846C06900F01000019000BF00BF00223C
:107CA00011463620FEF7BFF93620FEF7AFF906B0D1
:107CB00010BD0000000C0040001002400008014010
:107CC0000010004001460868C06840F001000A68E2
:107CD000D0600868006840F001000A681060002069
:107CE00070472DE9F04104460D46002600BF94F888
:107CF0003800012802D10220BDE8F081012084F87B
:107D0000380000BF022084F839002068866826F019
:107D1000770626F47F4620688660286850283BD086
:107D20000CDC202860D004DC002853D0102865D15A
:107D300055E030285DD0402860D141E0602835D042
:107D400070280DD0B0F5805F03D0B0F5005F55D13D
:107D500015E02068806820F00700216888604EE008
:107D6000D5E902136A68206801F008FE2068866879
:107D700026F0770646F07706206886603FE0D5E972
:107D800002136A68206801F0F9FD2068806840F4F9
:107D900080402168886032E0EA686968206801F004
:107DA00003FE5021206801F0F5FD28E0EA686968CB
:107DB000206801F04FFE6021206801F0EBFD1EE01D
:107DC000EA686968206801F0EFFD4021206801F051
:107DD000E1FD14E00021206801F0DCFD0FE010213E
:107DE000206801F0D7FD0AE02021206801F0D2FDD3
:107DF00005E03021206801F0CDFD00E000BF00BFAC
:107E0000012084F8390000BF002084F8380000BF4A
:107E100000BF71E770472DE9F04104460D46164654
:107E200000BF94F83800012802D10220BDE8F0819B
:107E3000012084F8380000BF022084F8390096B988
:107E4000EB68D5E90012206801F0C4FD2068806964
:107E500020F00C002168886120688069A9680843C7
:107E6000216888613DE0042E13D1EB68D5E900124A
:107E7000206801F005FE2068806920F440602168D8
:107E8000886120688069A96840EA012021688861CA
:107E900027E0082E12D1EB68D5E90012206801F026
:107EA0000EFE2068C06920F00C002168C8612068BF
:107EB000C069A96808432168C86112E0EB68D5E988
:107EC0000012206801F019FE2068C06920F44060AB
:107ED0002168C8612068C069A96840EA012021685A
:107EE000C861012084F8390000BF002084F8380000
:107EF00000BF00BF9AE710B504460CB9012010BDC1
:107F000094F8390028B9002084F83800204600F0A1
:107F10000CF8022084F83900211D206801F0D8FCFB
:107F2000012084F839000020E9E7704710B50446C5
:107F300020680069C0F34000D8B12068C068C0F371
:107F40004000B0B16FF00200216808610120207686
:107F50002068806900F0030018B12046FFF75AFF3F
:107F600005E0204600F0ADF8204600F0F7F80020CC
:107F7000207620680069C0F38000D8B12068C0680E
:107F8000C0F38000B0B16FF00400216808610220E6
:107F900020762068806900F4407018B12046FFF711
:107FA00039FF05E0204600F08CF8204600F0D6F8B6
:107FB0000020207620680069C0F3C000D8B1206896
:107FC000C068C0F3C000B0B16FF00800216808615C
:107FD000042020762068C06900F0030018B1204614
:107FE000FFF718FF05E0204600F06BF8204600F090
:107FF000B5F80020207620680069C0F30010D8B1E1
:108000002068C068C0F30010B0B16FF010002168A4
:108010000861082020762068C06900F4407018B11B
:108020002046FFF7F7FE05E0204600F04AF820461C
:1080300000F094F8002020762068006900F001002C
:1080400058B12068C06800F0010030B16FF0010045
:1080500021680861204600F082F820680069C0F3BA
:10806000C01058B12068C068C0F3C01030B16FF0C4
:108070008000216808612046FFF78BFD20680069B9
:10808000C0F3801058B12068C068C0F3801030B1D0
:108090006FF0400021680861204600F061F8206818
:1080A0000069C0F3401058B12068C068C0F34010A8
:1080B00030B16FF02000216808612046FFF76AFDAB
:1080C00010BD704730B504460D4635B1042D0BD0B8
:1080D000082D10D00C2D1CD114E02068C06840F091
:1080E00002002168C86015E02068C06840F0040004
:1080F0002168C8600EE02068C06840F00800216870
:10810000C86007E02068C06840F010002168C860BF
:1081100000E000BF00BF01222946206801F020FCDA
:108120000C492068884203D00B492068884201D15D
:10813000012000E0002028B12068406C40F400409D
:10814000216848642068006840F0010021680860E8
:10815000002030BD002C01400034014070477047C2
:1081600070477047F8B5044600250026206800686F
:1081700000F001052068C06800F4807625B11EB1CA
:10818000E06B40F00100E06320680068C0F3400548
:108190002068406900F0010625B11EB1E06B40F097
:1081A0000400E06320680068C0F3800525B11EB1BB
:1081B000E06B40F00200E06320680068C0F3C00597
:1081C00025B11EB1E06B40F00800E0632068006854
:1081D000C0F340152068C06800F020061DB116B13C
:1081E000204601F0D1FC20680068C0F3C01520686B
:1081F000C06800F080061DB116B1204601F006FEF1
:1082000020680068C0F380152068C06800F0400650
:108210001DB116B1204601F09FFCE06B70B100BFAC
:1082200020680068009020684068009000BF00BF90
:10823000012084F839002046FFF793FFF8BD10B500
:1082400004460CB9012010BDA06900B100E000BFD8
:1082500094F8390028B9002084F83800204600F04E
:1082600025F8022084F839002068C06820F4005006
:108270002168C860204601F0E5FC2068006920F410
:108280009040216808612068406920F02A00216838
:1082900048612068C06840F400502168C860002030
:1082A000E063012084F839000020CCE710B586B0E7
:1082B00004462F49206888422AD100BF2D48C06952
:1082C00040F400202B49C8610846C06900F4002032
:1082D000019000BF00BF0815029002200390032008
:1082E000059002A92448FDF747FB4FF40060029077
:1082F00000200390049002A91F48FDF73DFB0022D7
:1083000001213420FDF78FFE3420FDF77FFE2DE0A4
:108310001A492068884229D100BF1648806940F474
:108320008040144988610846806900F480400190CB
:1083300000BF00BF48150290022003900320059063
:1083400002A90F48FDF718FB4FF48060029000204F
:108350000390049002A90A48FDF70EFB00220221B7
:108360002520FDF760FE2520FDF750FE06B010BD6C
:10837000004C004000100240001001400038014055
:108380000008014070472DE9F04704460D461646A7
:1083900099464FF0000894F83980B8F1010F02D0E7
:1083A000B8F1220F65D105B116B90120BDE8F087FB
:1083B00000BF94F83800012801D10220F6E701201F
:1083C00084F8380000BF0020E06394F839002228C8
:1083D00003D1322084F8390002E0122084F83900F9
:1083E000A684E68428E0E08C401EE084A068B0F516
:1083F000805F14D14B4600228021204601F03EFDD3
:1084000008B10320D2E72F463888C0F3080021685E
:108410004860206908B9AD1C0EE06D1C0CE04B46AD
:1084200000228021204601F029FD08B10320BDE78C
:1084300015F8010B21684860E08C0028D3DC4B461E
:1084400000224021204601F019FD08B10320ADE7CC
:1084500094F83900322803D1222084F8390002E050
:10846000012084F8390000BF002084F8380000BFE4
:108470009CE702209AE7704700BFFEE710B502466E
:108480000B460021154C5068A0420BD850684000A4
:10849000B3FBF0F1C1F30B00042801D2042010BD9E
:1084A0000846FCE74FF40041906830B9506800EB93
:1084B0004000B3FBF0F0014309E0506800EBC0045A
:1084C00004EB0010B3FBF0F040F480400143C1F333
:1084D0000B0008B90120E2E70846E0E7A0860100AA
:1084E000014608684069C0F3802088B10868406987
:1084F00020F480600A68506104208863202081F89D
:10850000350000BF002081F8340000BF0120704713
:108510000020FCE72DE9F84304460F46154698462F
:10852000089E2068006840F4807021680860334627
:1085300000224FF00111204600F054F810B1032042
:10854000BDE8F88307F0FE0021680861324624493F
:10855000204600F0B6F830B1A06B042801D101200C
:10856000EEE70320ECE700BF206840690090206838
:108570008069009000BF00BF3146204600F0F8F847
:1085800060B1A06B042807D12068006840F4007037
:10859000216808600120D3E70320D1E7B8F1010F7B
:1085A00003D1E8B22168086118E0C5F3072021680B
:1085B00008613146204600F0DBF860B1A06B04286A
:1085C00007D12068006840F400702168086001202D
:1085D000B6E70320B4E7E8B2216808610020AFE7FE
:1085E000020001002DE9F04105460C4617461E46E3
:1085F0004FF00008FDF772FB804687BB13E0701C4C
:1086000088B12EB1FDF76AFBA0EB0800B0420AD991
:10861000202085F8350000BF002085F8340000BF19
:108620000320BDE8F081C4F3074001280AD128687F
:108630004069A1B20840A1B2884201D101200BE0FB
:10864000002009E028688069A1B20840A1B28842F0
:1086500001D1012000E000200028D0D02FE0FFE76A
:1086600012E0701C80B12EB1FDF738FBA0EB0800C2
:10867000B04209D9202085F8350000BF002085F8D8
:10868000340000BF0320CCE7C4F3074001280AD11F
:1086900028684069A1B20840A1B2884201D10120F6
:1086A0000BE0002009E028688069A1B20840A1B26F
:1086B000884201D1012000E000200028D1D1002013
:1086C000AFE72DE9F04104460D4616460027FDF7B9
:1086D00005FB07462FE020684069C0F38020C0B149
:1086E0002068006840F400702168086020684069D4
:1086F00020F48060216848610420A063202084F871
:10870000350000BF002084F8340000BF0120BDE820
:10871000F081701C78B126B1FDF7E0FAC01BB042C1
:1087200009D9202084F8350000BF002084F83400E7
:1087300000BF0320EBE7C5F3074001280AD12068FA
:108740004069A9B20840A9B2884201D101200BE0DA
:10875000002009E020688069A9B20840A9B28842D7
:1087600001D1012000E000200028B4D00020CEE795
:1087700070B504460D46FDF7B1FA06461BE02046EB
:10878000FFF7AEFE08B1012070BD681C98B125B19D
:10879000FDF7A4FA801BA8420DD9A06B40F0200081
:1087A000A063202084F8350000BF002084F8340046
:1087B00000BF0320E8E720684069C0F3C01000282C
:1087C000DDD00020E0E710B50021012000F0B8FD69
:1087D00002E00120FDF7B3F8012000F045FD00287C
:1087E000F7D18021012000F0ABFD8121012000F0B4
:1087F000A7FDD921062000F0A3FD0621072000F0E7
:108800009FFD8B21082000F09BFDFF21092000F037
:1088100097FD72211D2000F093FD74211E2000F0B1
:108820008FFD0021202000F08BFD0821212000F089
:1088300087FD3421392000F083FD2721332000F00B
:108840007FFD1D213B2000F07BFD80210E2000F0EC
:1088500077FD00210F2000F073FD8521012000F03D
:108860006FFD10BD2DE9F041ADF5007D122000F047
:10887000FBFC0446012000F0F7FC0746002504F04D
:10888000400000283DD0FF21122000F059FD0821B2
:108890002F48FDF719FA132000F0E6FC05461020DA
:1088A00000F0E2FC064631460D2000F049FD0026AE
:1088B00005E0002000F0D8FC40A98855761CAE42A7
:1088C000F7DB4FF00008002008E02249095C40AACD
:1088D000125C914201D14FF00108401C0528F4DBE5
:1088E000002005E040AA411D515C0DF80010401C1D
:1088F000691F8142F6DC681FC1B2684600F02EF89D
:1089000000BF8521012000F01BFD04F008000028B5
:1089100010DD542010494871582088712B20C871EF
:1089200008722146122000F00BFD8521012000F085
:1089300007FD09E0852F07D15220074948715820CB
:1089400088712020C87108720DF5007DBDE8F081A6
:10895000001001400B020020F901002010B50B4669
:1089600000210278262A23D14278012A20D1827858
:10897000F52A1DD100BF00BF00BF00BF00BFBFF37D
:108980004F8F00BF00BF00BF0A4A126802F4E062C6
:10899000094C2243121D074C226000BF00BF00BFDC
:1089A000BFF34F8F00BF00BF00BF00BF00BFFDE798
:1089B00010BD00000CED00E00000FA050EB51D48EA
:1089C0001D49086081151C4881600021C16041611A
:1089D0004FF46021C1610020174948600321164807
:1089E0000161FCF753F808B1FBF7D6FE04200090B4
:1089F000012001900020029069460F48FBF7D0FE4D
:108A000008B1FBF7C9FE10200090022001906946D2
:108A10000948FBF7C5FE08B1FBF7BEFE1120009028
:108A20000320019069460448FBF7BAFE08B1FBF742
:108A3000B3FE0EBD00240140C80C002008B500BFE5
:108A40000A48406940F00100084948610846406909
:108A500000F00100009000BF00BF002211460B2073
:108A6000FDF7E1FA0B20FDF7D1FA08BD0010024036
:108A700000B585B000BF4648806940F020004449F9
:108A800088610846806900F02000009000BF00BFA8
:108A900000BF0846806940F0100088610846806980
:108AA00000F01000009000BF00BF00BF08468069C2
:108AB00040F0040088610846806900F004000090DE
:108AC00000BF00BF00BF0846806940F00800886111
:108AD0000846806900F00800009000BF00BF002237
:108AE00041F20F012B48FDF7F3F800224A212A48F2
:108AF000FDF7EEF800224FF4C0512848FDF7E8F8E2
:108B000041F20F000190012002900220049001A97F
:108B10002048FCF731FF4A200190012002900220FA
:108B2000049001A91C48FCF727FF3F20019000207A
:108B30000290039001A91948FCF71EFF4FF4C050A2
:108B40000190012002900220049001A91348FCF733
:108B500013FF80200190002002900120039001A9C2
:108B60000C48FCF709FF4FF4004001900C480290BC
:108B70000020039001A90848FCF7FEFE00221146E0
:108B80002820FDF750FA2820FDF740FA05B000BD77
:108B9000001002400010014000080140000C01409C
:108BA0000000111000B585B0C02001901220029085
:108BB0000220049001A91448FCF7DEFE00BF134810
:108BC000C06940F400101149C8610846C06900F44A
:108BD0000010009000BF00BF0D480E4908600E480D
:108BE000486000210B488160C1604FF48041016101
:108BF000002141618161C1610162FDF775F808B131
:108C0000FBF7CAFD05B000BD000C0140001002409A
:108C100000540040300D0020A086010010B50E4821
:108C20000E4908604FF48270486000210B48816053
:108C3000C160016141614FF4007181613021C16106
:108C400000210162416281620A21C162FEF774FC67
:108C500008B1FBF7A1FD10BD003800406C0D0020ED
:108C600000B58BB022482349086042F6E0604860B6
:108C70000021204881604FF6FF71C1600021016131
:108C8000FEF7BAFF08B1FBF787FD4FF4805007905D
:108C900007A91848FFF725F808B1FBF77DFD15482F
:108CA000FFF729F908B1FBF777FD00200590069042
:108CB00005A91048FEF76FFF08B1FBF76DFD002016
:108CC000019001200290002003900490002201A94D
:108CD0000848FFF7A0F808B1FBF75EFD082201A9DC
:108CE0000448FFF798F808B1FBF756FD0BB000BD3C
:108CF000000C0040C40D00201CB50E480E49086051
:108D00004FF49650486000210B48816042F2107188
:108D1000C160FEF771FF08B1FBF73EFD0020009037
:108D2000019069460448FEF736FF08B1FBF734FDB1
:108D30001CBD000000100040000E002010B50B48C4
:108D40000B4908604FF416504860002108488160C4
:108D5000C16001610C21416100218161C161FFF7A6
:108D60006EFA08B1FBF718FD10BD0000004C004082
:108D70003C0E002010B50B480B4908604FF416401C
:108D80004860002108488160C16001610C21416197
:108D900000218161C161FFF752FA08B1FBF7FCFCC9
:108DA00010BD0000003801407C0E002010B50022EC
:108DB0000749084801F087FC0749064801F0A5FE6D
:108DC0000649044801F0DAF9024801F067FF10BDD6
:108DD0003401002024040020180000202401002079
:108DE00000BFFEE77047000002480068C0F30220A1
:108DF000704700000CED00E010B5002807DA0A0704
:108E0000140E054A00F00F031B1FD45403E00A0799
:108E1000130E024A135410BD18ED00E000E400E008
:108E20002DE9FC4105460024002700260020019082
:108E300000900CE2BDF8040000F00F06002E7DD17A
:108E4000BDF8040000F0100088BB2868008848F6D0
:108E50000F7108402968088005F128042868B0F8D7
:108E60005010207801EBC000801C296801F580615A
:108E700031F81000C0F30900E061E169606908445D
:108E8000606100212846FDF741F995F8240000288B
:108E9000CFDDA0690028CCD195F8240040F08000F7
:108EA0002968A1F84C00002085F82400CFE1FFE7F5
:108EB00005F50274286800880090BDF8000000F4F1
:108EC000006018B32868B0F85010207801EBC0009B
:108ED000801D296801F5806131F81000C0F3090098
:108EE000E061A18B8BB2A28805F57B71286802F046
:108EF00042FD28680088C0F30E0048F68F710840D4
:108F0000296808802846FDF709FCA0E1BDF80000AB
:108F100000F4004000288CD028680088C0F30E00C0
:108F200048F68F710840296808802868B0F850100A
:108F3000207801EBC000801D296800E055E001F5B4
:108F4000806131F81000C0F30900E061E06960B1B0
:108F5000B4F81CC01FFA8CF3A2886169286802F07B
:108F60000AFDE16960690844606100212846FDF757
:108F7000DBF82A6802F580622868B0F85000801D8E
:108F800002EB400122693E2A10D92269C2F34F1038
:108F9000227C02F01F020AB9421E90B24FF6FF7205
:108FA00002EA802242F400420A600DE02269C2F324
:108FB0004F00227C02F001020AB1421C90B24FF62F
:108FC000FF7202EA80220A60296809884BF68F72D4
:108FD00001EA020080F4805080F4005040F4004127
:108FE00041F080012A68118031E17100286830F871
:108FF00011000090BDF8000000F4004000287CD073
:109000007100286830F81100C0F30E0048F68F7127
:1090100008407200296821F8120005F5027000EB83
:109020004614A07AA8B92868B0F85010207801EB4F
:10903000C000801D296801F5806131F81000C0F37F
:109040000907EFB3A28861693B46286802F093FCE8
:1090500044E021784900286830F8110000F480408D
:10906000A8B12868B0F85010207801EBC000801C2F
:10907000296801F5806131F81000C0F30907DFB1FC
:10908000E28861693B46286802F075FC14E02868B4
:10909000B0F85010207801EBC000801D296801F560
:1090A000806131F81000C0F309072FB1228961698E
:1090B0003B46286802F05FFC21784900286800E000
:1090C0000CE030F8110048F68F71084048F2C001FA
:1090D000084322785200296821F81200E0693844D8
:1090E000E061606938446061A06910B12069B842EC
:1090F00004D921782846FDF717F805E0217828469D
:10910000D4E90523FDF7C6F8BDF8000000F08000A3
:1091100000287CD005F1280000EB46147100286877
:1091200030F8110048F60F7108407200296821F8E4
:109130001200A07AD0B92868B0F85010207801EB5E
:10914000C000801C296801F5806131F81000C0F36F
:109150000900E061E069E8B3B4F81CC01FFA8CF3C1
:10916000A2886169286802F024FC4EE02178490059
:10917000286830F8110000F04000D0B12868B0F83D
:109180005010207801EBC000801C296801F5806137
:1091900031F81000C0F30900E061E06928B3B4F8C9
:1091A0001CC01FFA8CF3E2886169286802F001FC98
:1091B0001BE02868B0F85010207801EBC000801D3B
:1091C000296801F5806131F81000C0F30900E06101
:1091D000E06900E019E040B1B4F81CC01FFA8CF35C
:1091E00022896169286802F0E4FB21784900286837
:1091F00030F8110048F68F7108404CF280010843A6
:1092000022785200296821F81200286800E01EE048
:10921000B0F85010207801EBC000801C296801F5DF
:10922000806131F81000C0F30900E061E169606914
:1092300008446061A06920B921782846FCF766FFE0
:1092400005E021782846D4E90523FDF791F8286840
:10925000B0F84400019000F4004000287FF4EAAD2B
:10926000BDE8FC81704700003EB504460020029036
:1092700001908DF8084000224FF480510948FCF716
:1092800027FD6420022301AA02A900900648FEF7E8
:10929000ABFA012211030348FCF71AFD9DF8050003
:1092A0003EBD0000000C01406C0D002070B506466C
:1092B0000C464021084600F043F8601DC1B2222050
:1092C00000F03EF80E20FFF7CFFF054629460D209F
:1092D00000F036F8002505E01748415D002000F059
:1092E0002FF86D1C052DF7DB002504E0715D0020D3
:1092F00000F026F86D1CA542F8DB8321012000F068
:109300001FF800BF1220FFF7AFFF00F00800002891
:10931000F8D08521012000F013F8FF21122000F081
:109320000FF8542005494871582088712D20C871C4
:109330003E20087270BD00000B020020F9010020E1
:1093400038B505460C4645F080008DF800008DF8D4
:10935000014000224FF480510748FCF7B9FC642318
:10936000022269460548FEF75FF90122110302480F
:10937000FCF7AEFC38BD0000000C01406C0D002075
:109380002DE9F04104460E4617461D464FF00008F1
:10939000FCF7A4FC8046002F3ED132E0681C78B375
:1093A0002DB1FCF79BFCA0EB0800A84229D920684E
:1093B000406820F0E000216848602068006820F0E4
:1093C000400021680860A06AB0F5005F0DD100BFC1
:1093D0002068006820F40050216808602068006858
:1093E00040F400502168086000BF012084F851005B
:1093F00000BF002084F8500000BF0320BDE8F081CA
:10940000FFE7206880683040B04201D1012000E0D1
:1094100000200028C2D03BE030E0681C70B32DB1C2
:10942000FCF75CFCA0EB0800A84227D92068406844
:1094300020F0E000216848602068006820F04000CB
:1094400021680860A06AB0F5005F0DD100BF2068F8
:10945000006820F40050216808602068006840F42B
:1094600000502168086000BF012084F8510000BF4F
:10947000002084F8500000BF0320BFE72068806808
:109480003040B04201D1012000E000200028C4D1CA
:109490000020B3E7F0B503461446802B01DA4029DB
:1094A00000DBF0BD2148007920B10CB9012000E0BB
:1094B00000200446012C1CD1CD1701EB5575ED1091
:1094C00003EBC5151A4E755D0A46CE1701EB5676AD
:1094D000F610A1EBC6070126BE403543EEB20846A2
:1094E000CD1701EB5575ED1003EBC515104F7E55EB
:1094F0001AE0CD1701EB5575ED1003EBC5150C4EB9
:10950000755D0A46CE1701EB5676F610A1EBC6073D
:109510000126BE40B5430846CE1701EB5676F6103D
:1095200003EBC616024FBD5500BFBAE7BC010020D1
:10953000F811002010B504460CB9002000E0FF200F
:1095400002464FF480610248FAF730FE10BD000079
:10955000F8110020014A108051807047BC010020A2
:1095600010B540F6C41400E0641E002CFCD1AE20FF
:1095700000F0FCF8202000F0F9F8102000F0F6F8D8
:10958000B02000F0F3F8C82000F0F0F8002000F060
:10959000EDF8102000F0EAF8402000F0E7F8812014
:1095A00000F0E4F8FF2000F0E1F8A12000F0DEF880
:1095B000A62000F0DBF8A82000F0D8F83F2000F04B
:1095C000D5F8A42000F0D2F8D32000F0CFF8002086
:1095D00000F0CCF8D52000F0C9F8F02000F0C6F873
:1095E000D92000F0C3F8222000F0C0F8DA2000F003
:1095F000BDF8122000F0BAF8DB2000F0B7F8202008
:1096000000F0B4F88D2000F0B1F8142000F0AEF8AE
:10961000AF2000F0ABF80020FFF78CFF00F074F8EB
:1096200000200349088048800120487110BD0000D7
:10963000BC0100202DE9F04307460C469046264821
:10964000008821780844802805DA2348408861781A
:109650000844402802DB0020BDE8F083002530E00C
:10966000A7F12000617800FB0150616831F810908B
:10967000002622E009FA06F000F4004058B1164A2C
:1096800052882A4491B2144A1288324490B2424617
:10969000FFF700FF10E0B8F1000F01D1012300E057
:1096A00000231A460C4B5B882B4499B20A4B1B884B
:1096B000334498B2FFF7EEFE761C2078B042D9D83A
:1096C0006D1C6078A842CBD80348008821780844F4
:1096D000014908803846BFE7BC01002070B5044648
:1096E0000D4616460AE0207832462946FFF7A2FFCB
:1096F0002178884201D0207870BD641C2078002831
:10970000F1D12078F8E7000010B5A4B0002424E0DF
:1097100004F1B001C8B200F029F8002000F026F8EA
:10972000102000F023F8002007E0802101FB040155
:109730000C4A515C04AA1154401C8028F5DB6420BB
:10974000802104AA0123CDE9002102904022782142
:109750000548FCF723FB601CC4B2082CD8DB24B0FE
:1097600010BD0000F8110020300D00201FB5044688
:1097700003940A20012103AA0B46CDE9002102909F
:10978000002278210148FCF709FB1FBD300D0020A5
:10979000704710B5FCF7C6FBFEF7F7F910BD10B522
:1097A00096B001200C9000040D9000200E90022035
:1097B0001390C1031491410415910CA8FDF780FA90
:1097C00008B1FAF7E9FF0F20079002200890002067
:1097D00009904FF480600A904FF4A0600B90012133
:1097E00007A8FDF793F808B1FAF7D6FF1220019009
:1097F000002003904FF48000069001A8FCF7C8FFFA
:1098000008B1FAF7C9FFFDF7CDF94FF47A71B0FB53
:10981000F1F42046FEF79FF90420FEF787F90022B5
:109820001146501EFCF7FFFB16B010BD1148006832
:1098300040F001000F490860084640680E490840A2
:109840000C494860084600680C490840094908600E
:109850000846006820F4802008600846406820F42C
:10986000FE0048604FF41F00886005480549086005
:1098700070470000001002400000FFF8FFFFF6FEF6
:109880000040000808ED00E010B50A480068C06814
:10989000C0F3400008B102F07DFB04210648FCF74C
:1098A00013FA00200349096848620248FEF73EFBAC
:1098B00010BD0000C40D00200010014010B502F0E2
:1098C0003FFB0248FEF732FB10BD0000000E0020F7
:1098D000002202681D4B98420ED01D4B98420BD0BF
:1098E000B0F1804F08D01B4B984205D01A4B9842DC
:1098F00002D01A4B984203D122F070024B681A43EF
:10990000124B98420ED0124B98420BD0B0F1804FC0
:1099100008D0104B984205D00F4B984202D00F4B05
:10992000984203D122F44072CB681A4302608B68DC
:10993000C3620B688362054B984202D0044B984285
:1099400001D10B690363012343617047002C01407F
:10995000003401400004004000080040000C0040BA
:1099600030B50023012404FA01F3046A9C43046225
:10997000046A02FA01F52C43046230BD30B50C468E
:109980000021816821F47F4142EA032525432943D0
:10999000816030BD0A460021816821F0700142F0EB
:1099A000070319438160704730B50B461446002108
:1099B0000022026A056A25F001050562816921F02D
:1099C000F00141EA041122F00A021A4381610262A5
:1099D00030BD000070B50C46154600210022066A15
:1099E00026F0010606628169026A154EB0420ED069
:1099F000144EB0420BD0B0F1804F08D0124EB0429E
:109A000005D0124EB04202D0114EB04201D1012613
:109A100000E000261EB121F00301294301E041F0DE
:109A2000010121F0F001F02606EA0316314322F08D
:109A30000A0204F00A0632438161026270BD00002E
:109A4000002C0140003401400004004000080040A8
:109A5000000C004030B50B46144600210022056A78
:109A600025F0100505628169026A21F4704141EA1E
:109A7000043122F0A00242EA03128161026230BD89
:109A800070B50C46154600210022066A26F0100625
:109A900006628169026A21F4407141EA052121F4DC
:109AA00070414FF4704606EA0336314322F0A002BB
:109AB000A02606EA041632438161026270BD70B5C9
:109AC0000C46154600210022066A26F480760662BE
:109AD000C169026A21F00301294321F0F001F02657
