:020000040800F2
:1000000060140020D500000825230008DD21000829
:1000100000000000000000000000000000000000E0
:10002000000000000000000000000000ED280008B3
:100030000000000000000000ED260008493700081D
:100040000501000805010008050100080501000878
:100050000501000805010008050100080501000868
:100060000501000805010008050100080501000858
:100070000501000805010008050100080501000848
:100080000501000800000000000000000501000854
:100090000000000005010008050100080501000836
:1000A0000000000005010008050100080501000826
:1000B000050100080000000005010008B546000821
:1000C0000348854600F04EFB00480047BD48000845
:1000D000601400200C4880F308880C480168090E61
:1000E0000B4A914205D10B480B4901600B480C4962
:1000F00001600C4880470C480047FEE7FEE7FEE73A
:10010000FEE7FEE7FEE700006014002004000000A8
:100110001F00000018100240010000000000014014
:1001200000000000C5370008C100000830B50B46CC
:10013000014600202022012409E00D46D5409D42C1
:1001400005D31D469540491B254695404019154647
:10015000521E002DF1DC30BD10B5202A04DB08460C
:10016000203AD040002110BD0B46D340D04020247F
:10017000A21A91400843194610BD03460B439B0742
:1001800003D009E008C9121F08C0042AFAD203E00C
:100190000B780370401C491C521EF9D27047D2B232
:1001A00001E00270401C491EFBD270470022F6E7B6
:1001B00010B513460A4604461946FFF7F0FF2046DD
:1001C00010BD0000F0B507460846584087B0C00F84
:1001D000049048000E46590040084908BC1A88415E
:1001E00005D2384631461E4617460B460246580091
:1001F000400810434CD0300D039040055900400D8D
:10020000490D0590401A0290402872DA1803012126
:10021000000B09050843019004980092002805D0BE
:100220000199524200208841009201900298402199
:100230000A1A0199009800F0C1F905460C466B4670
:1002400007CB00F0CBF9C0197141039A0E0D0023C2
:10025000D71756401A467A40164344D0049A002ACB
:100260002DD0029A012A039A15DC1205C01A914179
:1002700001263605001C7141D20F059ED20700935E
:10028000019202962A46234600F0C8F907B0F0BD55
:1002900038463146FAE71605224A0F46B218C01A08
:1002A000B74101210905001C4F4100187F4111464B
:1002B00018187941E20F10436D19644113E0E20709
:1002C0006D0815436408C2071443039A01261205FA
:1002D000C01A91413605001C7141CE0740083043D9
:1002E0004908C01851412A46234600F08AF9CDE753
:1002F000FFE7049801224000C117121A00238B4126
:1003000004983146C417381AA141EEE730B40124ED
:10031000E407634030BC55E730B40124E407614092
:1003200030BC4FE70000E0FFF0B51FB488B00B9978
:100330000998002448400999C00F490049080991CB
:10034000C0070B990090490049080B91099908983A
:10035000A64608431CD00B990A98084318D0099860
:1003600001244000420D4800410D09982405000376
:10037000000B204309900B980003000B20430B90C7
:1003800050181C494018002201901446104605E000
:10039000002001460DB0F0BD032801DA034600E05D
:1003A00003239C46C11A0AAE0AE05F0008ADED5B6C
:1003B0004F00F75B7D430027AA187C41491C5B1E58
:1003C0006145F2DD410004AB5A522104120C0A438C
:1003D000240C401C0828DFDB01980290009970462D
:1003E00001910090059B049A0799069800F016F970
:1003F000D0E700000DFCFFFFF0B50C465C4085B077
:10040000E40FE40703944C00002664085900944666
:10041000490802460296224321D062460A431ED072
:100420006200570D4A000E032303550D01240246B6
:100430002C492405781B1B0B360B401823432643FD
:10044000614600901C46501AB44103D30098401CEA
:10045000009002E0921800985B41002803DA002027
:10046000014605B0F0BD002001210905074686467A
:1004700011E064461D46141BB54106D36546521B68
:10048000B341744607430C43A646CD0740084908CC
:10049000284392185B4105460D43EAD110461843A4
:1004A00013D06046194650407140084306D060465C
:1004B000101AB34106D20122002306E000220123D4
:1004C000DB0702E00122D243531000987446010575
:1004D000381C6141029C039D0019694100F091F8AC
:1004E000BFE70000FD03000070B54B005B0803434D
:1004F0000BD04B005C0D002633466542B341D41748
:10050000AD1AA34102DB0020014670BD1205301870
:10051000514170BD0EB5C217C10F5040CA074018F7
:100520000021054B0293019200910A460B4600F010
:1005300075F803B000BD0000330400000EB5054996
:100540000291002100910A460B46019100F066F8E5
:1005500003B000BD330400004A0009030123090B66
:100560001B051943094B10B5520D9A4201DA0020C0
:1005700010BD064B34339A4203DC9A1AFFF7ECFDA8
:1005800010BD03495118884010BD0000FF03000052
:10059000CDFBFFFF10B5002904DB0124E407404236
:1005A0008C412146002B04DB1C460123DB07524211
:1005B000A341994200D1904210BD000010B5202AFD
:1005C00004DB0146203A9140002010BD91402023D9
:1005D0009C1A0346E3401943904010BD10B5202AF1
:1005E00006DBCB170846203A1041C1170B4306E043
:1005F0000B461341D0402024A21A914008431946CB
:1006000010BD10B5002B08DA0024401C614192187F
:100610005B411A4301D14008400010BDF0B51FB442
:1006200082B005460C0003D0084604F04BF802E007
:1006300004F048F820300246009021462846FFF793
:10064000BDFF049B059A04460F4618431143084317
:1006500014D0184610431BD0009840210A1A18469F
:100660000599FFF779FD05460E46009A059904980D
:10067000FFF7A4FF084305D0012004E020463946D7
:1006800007B0F0BD0020C11705430E432C4337438C
:1006900000990E986305401A7905E40A00220C437C
:1006A000FD0A0A3002D500200146E9E701051019CC
:1006B00069410C9C0D9D00196941FFF7A2FFDFE71E
:1006C000F8B50546480040080C46284304D06000B1
:1006D000184A400D904201DD2846F8BD15493539CC
:1006E000884210DC88420BDB290D200308432903D4
:1006F000014305D0E00F1049C00741180020F8BDA4
:1007000000200146F8BD161A4020821B28462146CB
:10071000FFF754FF07460091284621463246FFF76F
:100720001BFD3A46009BFFF76CFF3246FFF746FF82
:10073000F8BD0000330400000000F03F10B50029B0
:1007400004DB0124E40740428C412146002B04DBFA
:100750001C460123DB075242A3418B4200D1824257
:1007600010BD0000064C0125064E05E0E36807CCED
:100770002B430C3C98471034B442F7D3FFF7A4FC4A
:10078000E84A0008084B000870B58C180578401C32
:100790006B075B0F01D10378401C2A1106D1027848
:1007A000401C03E006780E70401C491C5B1EF9D10A
:1007B0002B0705D40023521E0DD40B70491CFAE7F9
:1007C0000378401CCB1A921C03E01D780D70491C65
:1007D0005B1C521EF9D5A142D8D3002070BD002069
:1007E000704700207047000010B5002205490648F8
:1007F00003F085FA03490448091F03F076FA002044
:1008000010BD000068010020A403002010B50146BF
:10081000034803F06AFA024803F041FA002010BDD1
:10082000A4030020FEE7000010B5094A0021CB0018
:10083000D458844207D89B189B68834203D9C800C8
:100840008018007910BD491CC9B21529EFD3FEE705
:10085000DC49000831B500F0ADF8044600F0AAF814
:100860000099001B8842F9D338BD0000F8B5002379
:1008700089E001249C402A46A44622407ED04C6850
:10088000022C01D0122C0CD1DC08A40027183C6AE1
:100890005D07ED0E0F26AE40B4430E69AE40264311
:1008A0003E6205685E000324B4400F79A543BF078C
:1008B000BF0FB7402F4307604D68012D05D0022DB3
:1008C00003D0112D01D0122D0ED18568CF68A5431C
:1008D000B7402F43876047686546AF430D79ED0603
:1008E000ED0F9D403D434560C568A5438C68B4400D
:1008F0002C43C4604C68E40044D5264CA56901260D
:100900003543A561A4699D0834400094224CAD0094
:100910002F19BC689D072E0F0F25B540AC43092544
:10092000ED06A84201D100250AE01C4DA84201D1E4
:10093000012505E01A4DA84201D1022500E0052558
:10094000B5402543BD60174C25684E689543F603B6
:1009500000D51543256065684E689543B60300D5FC
:1009600015436560A5684E689543F60200D51543AA
:10097000A560E5684E689543B60200E002E000D548
:100980001543E5605B1C0A681546DA4000D070E745
:10099000F8BD0000001002400000014000040048C3
:1009A0000008004800040140002A01D0816170471E
:1009B00081627047014800687047000018010020FC
:1009C00002480168491C01607047000018010020BE
:1009D00010B506480168102211430160002000F0A4
:1009E00007F800F017F8002010BD000000200240BA
:1009F00010B5044600F00EFF7D21C900FFF796FBFD
:100A000001F0A4FB00222146501E00F029F800202E
:100A100010BD000008B50C488169012211438161B5
:100A200080691040002200901146501F00F018F815
:100A300000221146901E00F013F800221146501EAD
:100A400000F00EF808BD000000100240C106C90EFB
:100A500001208840014908607047000000E100E083
:100A600010B501F061FC10BD10B50C0606D54906A5
:100A7000490E1C2461430818283004E01C246143FB
:100A80000818FF30093099B2002A06D0012282727C
:100A9000C180190C0181002010BD0022827281806A
:100AA000F9E71C224A43121810B5FF30FF3002301C
:100AB000926BC06903F0E7FA10BD1C224A4312187A
:100AC00010B5FF30FF32FF30013202309269C06949
:100AD00003F034FB10BD0000F0B54A06520E134679
:100AE0001C256A43CC091218002C01D0283201E0E1
:100AF000FF32093204461370C909FF345170E134E2
:100B0000217A01293DD001212172957A494B002D8E
:100B10004949557837D0002D05681678AC465BD02A
:100B2000B600AD5B6F0404D5444F0D403D436746AE
:100B3000BD5305681678AC46B600AD5B6F0605D5AB
:100B40003C4F0D4040373D436746BD53157806681E
:100B5000AF00F55B0D4039490D43F553364F117821
:100B600030373D40066889001D4375521178334A7D
:100B700000688900F13A15401D434552002020725B
:100B8000F0BD0220F0BD002D05681678AC4610D0EF
:100B9000B600AD5B6F0605D50D40264940310D43CB
:100BA00061468D5305681078234A8100685A3032B7
:100BB0000EE0B600AD5B6F0404D50D401F490D4338
:100BC00061468D53056810781C4A8100685AF13AD5
:100BD000104018436852D1E7B600AD5B6F0404D5EE
:100BE000164F0D403D436746BD5305681678AC4629
:100BF000B600AD5B6F0605D50E4F0D4040373D4347
:100C00006746BD5315780768AE00BD5B0D400949C6
:100C100040310D43BD53094F1678F13F3D40016807
:100C2000B6001D438D531178034A890000683032A5
:100C3000A1E70000808000008F8F000080C00000CE
:100C4000F0B54B06CA095B0E002A04D01C225A4399
:100C50001218283204E01C224A431218FF320932CB
:100C60000024947013700346C909FF335170E133B7
:100C7000197A01291AD00121197251781A4C0029C8
:100C80001178066814D08D00715B4F0603D52140A2
:100C9000164C21437153117800688A00124C815A16
:100CA0003034214010246140202414E00220F0BDA3
:100CB0008D00715B4F0403D521400D4C21437153CE
:100CC000117800688A000A4C815AF13C21400124C5
:100CD0002403614064006140044C403C2143815244
:100CE00000201872F0BD00008F8F0000C08000004F
:100CF00080C000004906490E1C2251430818FF30ED
:100D00000130008C80B27047F0B54D066D0E2E4656
:100D10001C246543CF092C18002F01D0283401E092
:100D2000FF3409342670C90961700146FF31E26061
:100D3000E131E3708C46097A01290DD00122614628
:100D40000A72E2789349002A08D0012A20D0022AA8
:100D50000DD0032A25D111E00220F0BD23780268CE
:100D60009B00D55A0D40FF35FF35023504E023784E
:100D700002689B00D55A0D40D55212E022780368D4
:100D800092009D5A0D40032149026918995208E0CA
:100D9000237802689B00D55A0D4001218902691809
:100DA000D15226780768B5007B5B7B497B4A0B40B4
:100DB000134333437B53A57A002D53D02578784EC7
:100DC0000B400768AD0033437B53E38850265D0832
:100DD00003686D00F65AF6182378DF0001239B02A2
:100DE000FB18F552238950265D0803686D00F65AFA
:100DF000F6182378DF005311FB18F5526378076863
:100E0000002B237875D09D007B5B5E0403D5654E77
:100E10000B4033437B53237807689D007B5B5E0662
:100E200004D55E4E0B40403633437B532378056830
:100E30009E00AB5B0B405B490B43AB53564E217896
:100E4000303633400568890013436B522178554C86
:100E500000688900F13C234013434352002061465F
:100E60000872F0BD6378002BA3881FD05D0803686B
:100E70005026F65A6D00F6182378DF0001239B02F6
:100E8000FB18F552237807689D007B5B5E0604D54E
:100E90000B40424940310B437B53016820783E4C64
:100EA0008300C85A30342040202440E05D080368A5
:100EB0005026F65A6D00F6182378DF003A4BFB18DF
:100EC000F55203685025ED5A374EEB182578B61CBD
:100ED000ED00AD195E19E3683E2B0BD9DD022D0C38
:100EE000DB0601D16D1EADB2AB020125ED032B4334
:100EF00007E020E0DD032D0CDB0701D06D1CADB257
:100F0000AB023380237807689D007B5B5E0403D5CA
:100F10000B4024490B437B5301682078214C83000C
:100F2000C85AF13C20400124240360406400604022
:100F30001043C85292E79D007B5B5E0403D5194EB7
:100F40000B4033437B53237807689D007B5B5E0631
:100F500004D5124E0B40403633437B53237805684B
:100F60009E00AB5B0B400D4940310B43AB530D4E24
:100F70002178F13E334001263603734076007340FA
:100F80000568890013436B522178034C890000687F
:100F9000303460E78F8900008F8F00008080000070
:100FA0008081000080C0000004040000F0B5490604
:100FB000490E1C244C432418FF3409346361226118
:100FC0000022A26103466270FF332170E133197A77
:100FD000012908D0012119726569E1688D4204D99F
:100FE0006D1A656103E00220F0BD29466261A57AB1
:100FF000002D05D06578002D19D0012D37D05AE08D
:1010000005685026765B76192578EF00324D7D19FC
:1010100076193E293ED9CD022D0CC90637D0A9023A
:101020000125ED03294300E0A902318043E0056872
:101030005026765B76192578EF00274D2D1F7D19F8
:1010400076193E290AD9CD022D0CCF0601D16D1E8D
:10105000ADB2AD020127FF033D4306E0CD032D0CE9
:10106000CF0701D06D1CADB2AD02358009E0056837
:101070005026765B76192578EF00174D2D1F7D19C8
:1010800071536578002DBBD0012D0AD013E06D1E81
:10109000ADB2C4E7CD032D0CC907C5D06D1CADB2F0
:1010A000C2E705685026765B76192578EF000A4D71
:1010B0002D1F7D197153217800688C00015B074D4D
:1010C000294001252D0369406D006940044D2943E5
:1010D00001531A720020F0BD060400008FBF00000B
:1010E00080800000F0B50246FF32E132137A012B16
:1010F0000BD001244F06CB097F0E1472002B06D0B3
:101100001C237B431B18283306E00220F0BD1C2360
:101110004B431B18FF3309339C701F70CE095E7060
:10112000012424031025114B002F0BD04906C90DB3
:10113000002E10D004680E4E605A304068401843AC
:10114000605210E001680B4E0888304060406840F3
:101150001843088007E00568064E685A303E304064
:1011600060401843685200201072F0BD808000007B
:10117000BF8F0000BFBF0000F0B506464806400E16
:101180001C2141438D19EB630021AA6329640121CD
:10119000283537466970FF372870E137387A0128DB
:1011A00006D03972EC686869A04203D9001B03E0DD
:1011B0000220F0BD044600206861A87A00280CD007
:1011C000297830688A00825C53064A4A6B7839D5A0
:1011D000002B12D0012B2CD032E0A3B2AA882969AF
:1011E000306801F070FA30685021095A09182878DF
:1011F000C200414810180C526AE050231B5AC90023
:1012000018183D4B1B1DC91841183E2C08D9E00287
:10121000000CE30601D1401E80B28002104306E0BC
:10122000E003000CE20701D0401C80B2800208807D
:1012300006E05022125A1018CA002F495118445281
:101240002A8927E0002B02D0012B1BD021E050235C
:101250001B5A1818CB002849591841183E2C08D998
:10126000E002000CE30601D1401E80B28002104370
:1012700006E0E003000CE20701D0401C80B28002CF
:10128000088006E05022125A1018CA001A49511854
:101290004452EA88A3B22969306801F014FA6878E8
:1012A000164A002802D001280AD011E029783068B7
:1012B0008900435A13400F4AC0321343435207E098
:1012C0002878316880000B5A13400D4A13430B52A3
:1012D000287831688200094B885A3033184010232F
:1012E000584020235840034B803318438852002035
:1012F0003872F0BD00800000020400008F8F0000F3
:1013000080C0000070B50446006840308088C00B83
:1013100002D0204601F02CF8206840308188490531
:101320000AD58188334A11408180204600F0DAF8DE
:101330000021204600F000F92068403081884904EF
:1013400003D581882C4A11408180206840308188F3
:10135000890403D58188294A114081802068403062
:1013600081880425C904002910DA0188A943018075
:10137000BD202168000240310880204600F0BEF800
:101380002068403081881E4A1140818020684030AA
:101390008188090517D581881A4A11408180206803
:1013A00040300188082211430180206840300188C4
:1013B00029430180206840308088C043C00402D5A2
:1013C000204600F0E3F8206840308188890506D582
:1013D00081880D4A11408180204600F0A5F82068E0
:1013E00040308188C90503D58188084A1140818031
:1013F00070BD0000FFFB0000FFBF0000FFDF00002A
:10140000FFEF0000FFF70000FFFD0000FFFE0000FF
:10141000F8B500270446002807D02646FF36E136F7
:10142000707A0025002802D005E00120F8BD357251
:10143000204600F03BF80320707201210BE01C20D5
:10144000784302191046203041720772C572556305
:1014500095637F1CD5636068B842F0D800200BE02C
:101460001C2242431219FF32013255721072D5729A
:1014700055619561401CD56162688242F0D8206850
:1014800040300180206840300580206840308580F1
:10149000206840300582BF20226800024032108060
:1014A0002034257171720020F8BD000008B5006875
:1014B0000A49884210D10A48C2690121C9050A4374
:1014C000C261C06900220840009011461F20FFF74A
:1014D000C7FA1F20FFF7BAFA08BD0000005C004001
:1014E0000010024010B5C41DFF34FA340121E06938
:1014F00002F009FFE06902F0CEFE10BD10B504460F
:101500008069002806D007480169062291430161DD
:1015100002F020F9FF34FF340234E06902F0DEFE0D
:1015200010BD000000ED00E0FF3010B5FF300230CC
:10153000C06902F0D9FE10BD0246FF32E132137AD3
:10154000012B08D001231372002906D0203001712D
:1015500000201072704702207047006880214030E0
:101560008181F5E710B5872189000A580146FF31CE
:10157000ED31104602F0D3FE10BD00684030018B03
:101580000122D203114301830020704710B50446A5
:10159000FF30FF300230C06902F002FFA06900286E
:1015A00004D00348016906221143016110BD000007
:1015B00000ED00E0F8B5044600683E4DC00352D58A
:1015C000E8690026C00007D4E96928040143E961FD
:1015D000E96901400126009137480168C90510D426
:1015E0000168821511430160FFF7E4F9074604E042
:1015F000FFF7E0F9C01B642824D82F480068C00515
:10160000F6D5286A03273F02384020D06168394068
:1016100081421CD0286A2A6AB843012109040A437E
:101620002A622A6A8A432A622862C0070FD0FFF71B
:10163000C1F9009008E0FFF7BDF90099411A1F4871
:10164000814201D90320F8BD286A8007F3D5286AB2
:101650006168B84308432862002E04D0E96901207C
:1016600000078143E9612078C00705D0286BA16895
:1016700080088000084328632078800605D5286B01
:1016800010218843E168084328632068800305D55A
:10169000286B8021884361690843286320884005BE
:1016A00005D5286B40218843216908432863002021
:1016B000F8BD0000001002400070004088130000D8
:1016C000F8B505464E480E460068C007C00FB04248
:1016D0000AD24B480168490849003143016000685B
:1016E000C007C00FB04270D12878464C800705D59E
:1016F0006068F0218843A968084360602878C007C3
:1017000053D06868012817D0022818D0032819D0B0
:1017100021688907002958DA61688908890001432E
:101720006160FFF747F969680746012913D002296C
:101730001DD0032927D034E021688903EAE7216816
:101740008901E7E7616BC903E4E7FFF733F9C11BE0
:101750002D48814223D860680007800F0128F4D10A
:1017600023E0FFF727F9C11B2748814217D860689B
:101770000007800F0228F4D117E0FFF71BF9C11B07
:10178000214881420BD860680007800F0328F4D1FC
:101790000BE0FFF70FF9C11B1B48814201D9032061
:1017A000F8BD60680007800FF3D115480168C907CC
:1017B000C90FB1420BD901684908490031430160A2
:1017C0000068C007C00FB04201D00120F8BD2878E2
:1017D000400706D56068072109028843E968084385
:1017E000606000F02DF86168084A0906090F515C35
:1017F000C840074908600020FFF7FAF80020F8BD4C
:10180000002002400010024088130000C449000874
:101810001C01002001480068704700001C010020E6
:101820000448054900684968044A4905490F515C64
:10183000C84070471C01002000100240D449000835
:1018400030B516A30FCB89B06C460FC417A30FCBCE
:101850000FC41A494A680C20144604401848042C46
:1018600005D0184B082C04D00C2C00D1184609B018
:1018700030BD9402240F6D462C5DC96A04AD090782
:10188000090FD203695C920F022A02D0032A00D109
:101890001846FEF74BFC6043E9E70000020304052D
:1018A000060708090A0B0C0D0E0F101001020304A5
:1018B00005060708090A0B0C0D0E0F100010024058
:1018C00000127A00006CDC02FEB504460078F04E8F
:1018D000F04DC00748D068680007800F01281FD06E
:1018E00068680007800F022804D16868C003800F71
:1018F000022815D06168012919D00120800400292F
:1019000001D0052917D02968B1432960296881438E
:101910002960606800281BD0FFF74CF8074613E0E9
:101920002868800320D56068002876D01CE02868ED
:1019300030432860EDE7296801432960F7E7FFF7A6
:1019400039F8C01B642869D828688003F7D50BE0F4
:10195000FFF730F8074604E0FFF72CF8C01B6428B7
:10196000F1D828688003F7D4207880073ED56868CE
:101970000007800F14D068680007800F022804D188
:101980006868C003800F01280AD0E0680028286832
:101990001DD0012108432860FFF70CF807460BE033
:1019A000286880070BD5E068012836D107E0FFF7EB
:1019B00001F8C01B0228C6D828688007F7D5286818
:1019C000F82188432169C900084328600EE04008D7
:1019D00040002860FEF7EEFF074604E0FEF7EAFF4E
:1019E000C01B0228AFD828688007F7D420780007EA
:1019F00024D5E0690028686A11D001210843686293
:101A0000FEF7D8FF074604E0FEF7D4FFC01B02280C
:101A100099D8686A8007F7D510E036E1D1E0400830
:101A200040006862FEF7C6FF074604E0FEF7C2FF0B
:101A3000C01B022887D8686A8007F7D4207804275B
:101A40004007002861DA00200190E869C00008D44E
:101A5000E969B8060143E961E969014001200091A3
:101A600001908D480168C90511D4016882151143A0
:101A70000160FEF79FFF009005E0FEF79BFF0099D5
:101A8000401A642897D884480068C005F5D5A06836
:101A900001280AD0002801D0052811D0286A400862
:101AA00040002862286AB84302E0286A01210843FE
:101AB0002862A068002812D0FEF77CFF00900AE0A0
:101AC000286A38432862F0E7FEF774FF0099411A4C
:101AD0007248814275D8286A8007F5D50DE0FEF777
:101AE00069FF009006E0FEF765FF0099411A6B4818
:101AF000814266D8286A8007F5D40198002804D06E
:101B0000E969012000078143E9612078C00635D5E5
:101B1000606901280CD0401D686B24D0384368638D
:101B2000686B400840006863FEF744FF074622E008
:101B3000686B38436863686B012108436863FEF78C
:101B400039FF074604E0FEF735FFC01B022838D8EE
:101B5000686B8007F7D5686BF8218843A169C900D5
:101B6000084368630AE0B8436863F4E7FEF722FFBE
:101B7000C01B022825D8686B8007F7D42078800620
:101B800037D568680007800F032813D068680007FE
:101B9000800F022804D16868C003800F032809D091
:101BA000206A0028686B16D030436863FEF702FF96
:101BB00006460CE0686BC0031BD5206A012864D17F
:101BC00017E05BE0FEF7F6FE801B022856D8686B34
:101BD000C003F7D50DE0B0436863FEF7EBFE0646A1
:101BE00004E0FEF7E7FE801B022847D8686BC003BD
:101BF000F7D4606A002846D069680907890F02296E
:101C000043D0012636060228286805D0B043286054
:101C1000FEF7D0FE044633E0B0432860FEF7CAFE6C
:101C2000074604E0FEF7C6FEC01B022826D8286837
:101C30008001F7D4E86A216B000900010843E862DB
:101C4000A16AE06A084369687B22D2039143084392
:101C50006860286830432860FEF7ACFE044604E064
:101C6000FEF7A8FE001B022808D828688001F7D5D7
:101C700009E0FEF79FFE001B022801D90320FEBDEC
:101C800028688001F5D40020FEBD0120FEBD0000C3
:101C900000000100001002400070004088130000A6
:101CA000FFB581B016460F46040005D025466035C5
:101CB000687A002803D007E0012005B0F0BD0020BD
:101CC0002872204600F05EFA2420687220680168BD
:101CD000490849000160204601F038FE0128ECD097
:101CE000606A002802D0204601F09AFD20688168D1
:101CF0000122920311438160206881685200914360
:101D000039438160049871050004084321680A681A
:101D1000064B1A4002430A60206801680122114301
:101D20000160204601F0E2FDC7E70000FFFF00FC74
:101D3000F8B5040006D025464035687F0026002807
:101D400002D005E00120F8BD2E77204600F058F8BB
:101D500002236B77206801684022914301600722CB
:101D6000E0681202904201D9002101E0012109033B
:101D70000F273F02B84202D0904200D0A662276BE4
:101D8000002F05D1904201D9236301E00120206397
:101D9000A26860686369104322691A4310430123F3
:101DA000A2695B021A401043E2691043226A1043A1
:101DB000A26A104322681060206B022804D12068B8
:101DC00002689B001A430260626B606AA369104359
:101DD0001B0C0427E2683B401A4310430843216868
:101DE00048602168E06A08612068C169034A1140BF
:101DF000C1612666012068770020F8BDFFF700006A
:101E0000F0B50068134987B0884221D11248C269F1
:101E100009140A43C261C069104F084005900811B7
:101E200000900520022500240326049003960195C6
:101E3000029469463846FEF719FD0D200003009014
:101E4000029469460396019504943846FEF70EFD08
:101E500007B0F0BD00380040001002400004004808
:101E6000FFB581B004460A9FFEF7A4FD2546403524
:101E70000090287F0026012806D001202877687F5F
:101E8000012804D0022648E1022005B0F0BD0298E6
:101E900000287DD003980028FBD004980028F8D0B3
:101EA0000520687700202066039820640498E88065
:101EB0000498A8800298A0630498E0870498A087FB
:101EC0000120A16A400381420AD120680168964A34
:101ED0001140016020680168012252031143016032
:101EE0000721E0680902884202D8E888012805D95C
:101EF0002068426801231B039A4304E0206842687B
:101F000001231B031A43426020680268520603D46F
:101F1000026840231A430260E068884244D8ADE07A
:101F2000E08F002826D020688168890722D5A16B20
:101F30000988C160A06B801CA063E08F401EE08711
:101F4000E08F002816D10120A16A4003814211D1FF
:101F500020680168490707D44168090704D5026869
:101F6000012149020A43026020680168012212032C
:101F700011430160E88800280ED020688168C907F5
:101F80000AD0C068216C0880206C801C206400E0AE
:101F9000C2E0E888401EE880781C05D0FEF70AFD04
:101FA0000099401AB84267D2E08F0028B8D1E8887B
:101FB0000028B5D168E0E08F002830D02068816823
:101FC00089072CD5E18F0129A16B07D90988C16048
:101FD000A06B801CA063E08F801E05E04A1CA263FA
:101FE00009780173E08F401EE087E08F002816D14A
:101FF0000120A16A4003814211D12068016849078C
:1020000007D44168090704D501680122520211432F
:102010000160206801680122120311430160E88811
:10202000002821D020688168C9071DD0E9880129CE
:1020300012D9C068216C0880206C801C2064E8885C
:10204000801EE880E88801280ED8206841680122B7
:1020500012031143416007E0027B206C411C2164A4
:102060000270E888401EE880781C07D0FEF7A2FCCA
:102070000099401AB84201D303264EE0E08F0028B1
:1020800099D1E888002896D10120A16A40038142B5
:102090002BD101223B461146204600F0DFFB0028F1
:1020A00019D10F21E06809028842206804D1C06874
:1020B00069460880088818E0017B6846018000882E
:1020C000206B022811D101223B461146204600F028
:1020D000C5FB002804D0216E022001432166CBE716
:1020E0002068017B68460180008820688168C943B8
:1020F000C90606D4216E0222114321660B49816074
:1021000001263946204600F03DFB002801D0202062
:102110002066206E002800D001260120687700206C
:1021200028773046B1E60000FFDF0000EFFF000037
:10213000042204490428086902D0904308617047CA
:102140001043FBE700E000E070470000094910B5CC
:10215000401E884201D9012010BD074C6061032157
:10216000081F00F0E1F80020A06107202061002096
:1021700010BD0000FFFFFF0000E000E010B5FFF71A
:10218000E3FF10BDF0B50068124987B088421FD147
:102190001148C269012149040A43C261C06902248D
:1021A0000840009405900020092703260125FF061A
:1021B000029001946946039604953846FEF756FB53
:1021C0000C20694671C1694638460495FEF74EFBFE
:1021D00007B0F0BD0044004000100240FEE70000E0
:1021E000F0B51E4887B04269012189050A43426162
:1021F00042690A400592426949110A4342614269B3
:102200000A400592426949000A434261406900243C
:10221000084005903F20124F0090019469460294B7
:102220003846FEF723FB0B252D0201260294694652
:102230003846019600950394FEF718FBF0036A46B2
:1022400051C209206946C006FEF710FB002229464C
:102250003846FEF7A9FB07B0F0BD000000100240B1
:102260000004004810B511480F490160FF210531F5
:10227000416000210322816012020161C2600122DB
:10228000416192048261016220224162C2618162E5
:102290000722C262016308214163FFF749FD00285C
:1022A00000D0FEE710BD000000380040240A0020E6
:1022B00010B50E480C4901604B21490241600121D3
:1022C000090781600021C16001618161C1610C2247
:1022D000016242610B4641620A46FFF7E1FC0028B9
:1022E00000D0FEE710BD000000440040880A002036
:1022F00010B500220749084801F09AFE0749064830
:1023000002F073F80649044801F0E5FC024802F0C7
:10231000BDF810BD20010020A4030020E000002033
:1023200054010020704700008307FF22DB0E9A4013
:102330008907090E994000280BDA0007000F0838BA
:10234000830808489B001818C36993430B43C36173
:102350007047830804489B001B1818689043084383
:102360001860704700ED00E000E400E070470000F6
:10237000F0B585B0044600206946888026462036A0
:1023800078E19A8917073F0F26D0B9000291425A87
:102390009A80998809047DD5BE490A400299425223
:1023A00038461C2148430519FF350935A87A00280D
:1023B000206870D029788A00825A52046CD5502245
:1023C000125ACB00B44912185918515A8905890D6F
:1023D00000917DD0EA88BDE09A89D20627D4018891
:1023E000AE4A25461140018020685021095A2835FF
:1023F00008182978CA00A8495118405A8005800D4C
:102400002064A16B0818A06300212046FEF749FB59
:1024100030790028B4D068690028B1D130798021A2
:1024200008432168403188810020307122E125462F
:10243000FF35028809359A809B881B0519D5098AC2
:1024400009182878C2009448001D1018085A294617
:1024500083059B0DAB61AA88E431206800F024F964
:1024600020688C4A0188114001802046FFF77AF8E5
:1024700000E1694689880904D8D58649864F0A4013
:10248000028020685021095A3F1D09182878C00091
:10249000C01902E085E03DE04FE0085A83059B0D3E
:1024A000AB6108D0AA882969206800F0FDF8A96905
:1024B00028694018286100212046FEF7FEFA2068AE
:1024C00001464030008A4018C119E8683E2800E003
:1024D00044E00AD9C202120CC00601D1521E92B2C7
:1024E00090020122D203104306E0C203120CC0077F
:1024F00001D0521C92B2900208802168684A088874
:10250000104001221203504052005040654A1043CF
:102510000880AFE05021095A0A182978CB005E499B
:10252000091D5918515A8905890D009121D0AA8891
:102530002969009B00F0B8F81BE05022CB00125A2A
:1025400055491218091D5918515A8905890D0091CC
:1025500004D02A892969009B00F0A6F82978206810
:102560008A004E4B815A803319404E4B40331943F9
:102570008152A96900980818A861296900980A1869
:102580002A616B69002B03D0E9680098814204D965
:1025900029782046FEF791FA03E029782046FEF7D5
:1025A00005FD68468088000664D51C2047432068E6
:1025B00002993A4A415A3D191140029A28358152EE
:1025C000A87A0028206811D029788A00825C5206F7
:1025D0001ED55022125AC90012182F480818105A36
:1025E00083059B0DAB6124D0EA881EE05021095A77
:1025F00009182878C20028481018085A83059B0D2E
:10260000AB6121D0AA882969206800F05CF81BE042
:102610005022125AC90012181F48001D0818105ADB
:1026200083059B0DAB6104D02A892969206800F0DD
:102630004AF8287822688000184B115A80331940D4
:10264000174BF1331943115220685021095A0918C8
:102650002878C20010481018085A8005800DA8611B
:1026600029690A182A616B692978002B20460DD048
:10267000FEF782FD2068014640318A886B469A81C8
:10268000120400D57DE6002005B0F0BDFEF709FA82
:10269000F0E700008F0F0000020400000F8F000021
:1026A0008FBF000080800000101801225B1C920286
:1026B0005B088018002B05D002880A80801C891CCA
:1026C0005B1EF9D17047101801225B1C920210B5F5
:1026D0005B088018002B08D04A780C78120222433D
:1026E0000280801C891C5B1EF6D110BD7047000063
:1026F00070B5092000F058FA0446062000F054FA9C
:102700000504072000F050FA00020543082000F0FD
:102710004BFA2843FDF712FF0022184BFDF704FE89
:10272000FDF71AFF05460021092000F0CBFF3B20F2
:1027300000F03AFA4026304301463B2000F0C2FF49
:102740003B2000F031FA8006FAD40D4800F00AFB75
:102750003B2000F029FA304301463B2000F0B2FF55
:102760003B2000F021FA8006FAD42146092000F02F
:10277000A9FF284600F0F6FA70BD000080844E40A4
:1027800000A1BC3370B50E460B460321044600225F
:10279000C90200F011F82025002807D13346002295
:1027A0008021204600F05AF8002803D0206E2843EC
:1027B0002066032070BD0000FEB51D4617460E467C
:1027C0000446FEF7F7F800903EE0032149028E42EE
:1027D00005D1002F03D1017B684601710079681C87
:1027E00032D0002D05D0FEF7E5F80099401AA84236
:1027F0002AD320684168E022914341606068C11F8C
:10280000FD390CD10121A068C903884202D04911C9
:10281000884204D120680168402291430160012070
:10282000A16A4003814208D121680A680A4B1A4014
:102830000A6021680A6802430A6001204034607718
:10284000002020770320FEBD206881683140B94216
:10285000BBD10020FEBD0000FFDF0000F8B51D4623
:1028600016460F460446FEF7A5F8009034E0681CB3
:1028700032D0002D05D0FEF79DF80099401AA842ED
:102880002AD320684168E022914341606068C11FFB
:10289000FD390CD10121A068C903884202D0491139
:1028A000884204D1206801684022914301600120E0
:1028B000A16A4003814208D121680A680A4B1A4084
:1028C0000A6021680A6802430A6001204034607788
:1028D000002020770320F8BD206880683840B0428F
:1028E000C5D10020F8BD0000FFDF000070470120C7
:1028F000704700000148007870470000F80B002086
:10290000F3B5024600206D4987B0002A0BD0012A9A
:102910007ED10024086C2546072853D0082854D0BF
:10292000092857D154E065488069FDF707FE0090FB
:1029300001910898FDF702FE06460F46302000F090
:1029400033F94007800F02D000245D4D01E00024E0
:102950002546272000F028F958494007400F898B69
:10296000401C4018FDF7EAFD544A927F012A22D00C
:102970000022534BFDF726FC22462B46FDF722FC96
:1029800032463B46FDF71EFC4C4A20321278012AA3
:1029900014D000221346FDF715FC0322FDF7A4FD19
:1029A000019B009AFDF728FD0022464BFDF7BCFC79
:1029B00001F0BAFF7DE000221346DBE7002201238D
:1029C0009B07E8E70024404D04E000243F4D01E070
:1029D0003F4D00244F6C0120B840FDF79BFD02469F
:1029E0000B4620462946FDF707FD02460B46002010
:1029F0003349FDF701FD314E044640360D467089DE
:102A0000FDF79CFD0022334BFDF7DCFB224600E086
:102A100051E02B46FDF788FC05910490707A001D6B
:102A2000FDF78CFD03910290307A002800D002203F
:102A3000381A8000FDF782FD009008980191C000CF
:102A4000B900401AB17B09014018317B002900D040
:102A50001421401A1C30FDF771FD019B009AFDF70F
:102A6000CBFC01F063FE039B029AFDF75DFC0022A4
:102A700007460E461346FDF78DFD02D23846314615
:102A800001E0002001460022134BFDF79BFB22468C
:102A90002B46FDF749FC059B049AFDF793FB0022AA
:102AA000084BFDF741FC0D4A0D4BFDF78BFB01F088
:102AB000A1FEFDF751FD09B0F0BD0000F80B0020AC
:102AC0000000F03F00408F408084FE4080840E4133
:102AD00080841E4100001140000020402B8716D941
:102AE000CEF7EF3F70B51049086000F0A9F8FFF786
:102AF000FFFD002000F0A6F90B4D00242D1D600005
:102B00002618A85D00F066F970198178407800F009
:102B1000D9FD641CE4B2112CF1D3002000F05AF965
:102B200002490020087070BD6C010020F80B0020E5
:102B3000F8B515460F460646012400F04BF9384615
:102B400000F010F9052000F07DF90120FDF782FE6C
:102B50006420FDF77FFE304600F050F8A84200DD0B
:102B6000002400F007FC2046F8BD70B500250120C8
:102B700000F030F9FF21112000F0A4FD052000F045
:102B800061F900240120FDF765FE2C2000F00CF80F
:102B9000C007C00FA040641C0543E4B2202CF1D351
:102BA00000F0E8FB284670BD08B50122694600F038
:102BB00003F86846007808BDF8B5012715460E46AB
:102BC00004463F03002239460B48FDF7EDFE600640
:102BD000400E00F0A7FD002405E0002000F0A2FD5B
:102BE0003055641CE4B2AC42F7D3012239460248A6
:102BF000FDF7DAFEF8BD00000004004810B500281B
:102C000004D0012808D00020C04310BD1120FFF7D8
:102C1000CBFF4008404210BD074808494068884241
:102C200004D91B20FFF7C0FF9D3810BD1B20FFF704
:102C3000BBFFA43810BD0000F80B002040DD4A1F88
:102C400070B50124094DE402002221462846FDF713
:102C5000ABFE0120FDF7FEFD012221462846FDF7CF
:102C6000A3FE0620FDF7F6FD70BD0000000400483D
:102C700073B5394C064661780020002902D001293D
:102C800066D128E00020208768460179E186A07F90
:102C900000280BD0322000F015FD684602792E4D39
:102CA000501E20353F2806D8EA760AE0012101A807
:102CB00000F030FDF1E731462848FDF75EFA2020AC
:102CC000E876E97E304600F025FD208FE97E401849
:102CD0002087606A3CE02048BE254030407C0128C7
:102CE00021D03320FFF760FF2840411C332000F043
:102CF000E9FC1D213B2000F0E5FC684601791648FF
:102D000060300170222000F0DDFC00210E2000F078
:102D1000D9FC00210D2000F0D5FC0120FFF744FF75
:102D200040070AD00EE03320FFF73EFF284001465F
:102D3000332000F0C7FC1921DCE700F025FB01205F
:102D4000FDF788FD68460179304600F0E3FC606DD0
:102D500000F024FB7CBD0000F80B0020F80A0020E6
:102D60007047704710B50D494860FDF7E7FB00223A
:102D70000B4BFDF741FBFDF7EFFB04460002010E94
:102D8000062000F09FFC2004010E072000F09AFCB2
:102D9000E1B2082000F096FC10BD0000F80B002006
:102DA00080844E4070B50D46044600F013F8002CA8
:102DB00004D0012C0AD12946232005E00448807F55
:102DC000002803D12946322000F07CFC70BD0000B1
:102DD000F80B002010B504460120FFF7E5FE0106C0
:102DE000174801D5012100E000214170C9B2A1427C
:102DF00024D04470012C0FD000F0BCFA0120FFF762
:102E0000D3FE4106490E012000F05CFC0021402069
:102E100000F058FC30210EE000F0ACFA0120FFF782
:102E2000C3FE80210143012000F04CFC0021402022
:102E300000F048FC0021412000F044FC10BD0000DF
:102E4000F80B002010B504000FD00020FFF789FF19
:102E50002046FFF785FF0120FFF7A6FEC108C90045
:102E60002143012000F02EFC10BD0120FFF779FF67
:102E7000F1E7000010B504460120FFF7ABFF05485D
:102E8000002C047601D0342100E01221392000F01A
:102E900019FC10BD380C002070B504460920FFF75E
:102EA00083FE06464D20FFF77FFE05467006400E66
:102EB00070210843C1092AD0112C02DD07210D43DE
:102EC00002E0ED08ED002D1DE943490703D0022C77
:102ED0000CDA02240DE0052C01DA052402E0142CA2
:102EE00000DD142401090901641F05E0112C00DD37
:102EF000112401090901A41E2007000F0143092024
:102F000000F0E0FB29464D2000F0DCFB70BD002105
:102F1000C9438C4201DA0C4602E00E2C00DD0E247F
:102F200001090901641CE7E770B5684C0026607868
:102F3000002802D0012825D125E0644D402020350D
:102F4000AE78FFF731FE8107890F40200C3100F089
:102F5000B9FB4120FFF728FE3E2108400146C13160
:102F6000412000F0AFFB3520FFF71EFE8006800EEB
:102F7000A8761E210D2000F0A5FB002028736873A1
:102F80002087E0867DE0514D4035687C012825D0C2
:102F90003320FFF709FEBE210840411C332000F01A
:102FA00091FB1D213B2000F08DFB206C092877D27E
:102FB0003120FFF7F9FD4106490E312000F082FB78
:102FC0000021302000F07EFB206C030001F091FB1B
:102FD0000910171E252C333D3D3D41003320FFF7DE
:102FE000E3FD41210143332000F06CFB1921D9E7B7
:102FF00048212F2000F066FB3549606821E044211C
:103000002F2000F05FFB334960681AE044212F2035
:1030100000F058FB3049606813E044212F2000F095
:1030200051FB2E4960680CE044212F2000F04AFB40
:103030002B49606805E044212F2000F043FB29491B
:1030400060684018FFF78EFE03E040212F2000F05B
:1030500039FBE87BAE7C012829D01F21112000F02C
:1030600031FB4020FFF7A0FD8106890E402000F0D3
:1030700029FB00210F2000F025FB00210D2000F08E
:1030800021FBFF2101311848FDF790F80120207045
:103090006078002801D0002E13D0052012E0FFE751
:1030A0003120FFF781FD802101433120CFE71D2131
:1030B000112000F007FB4020FFF776FD332101408F
:1030C000D4E70620FFF7BEFE70BD0000F80B00201D
:1030D000821E0000B4280000043D00005E51000084
:1030E000127A0000C6A20000F80A0020FFB587B0DF
:1030F00017460C460546139EFFF76CFE119998483B
:10310000090A0691002D04D0012D7AD1022C7AD91A
:10311000FEE787610546046110986861AE771498F0
:10312000E8778F48159920300170189941701999E6
:1031300081701198A8833846FDF700FA07460B46C0
:1031400001913A4600208749FDF756F90322FDF721
:10315000CBF9049005911298FDF7F0F9059B049ABC
:10316000FDF7E2F80022804BFDF7DEF8FDF7F4F9F9
:10317000A8623A4600207D49019BFDF73DF9FDF725
:10318000EBF985B2290A022000F09CFAE9B203208B
:1031900000F098FA2046FDF747FB0146122000F0A8
:1031A00091FA1098FDF740FB0146132000F08AFACF
:1031B0002520069900F086FA1198C1B2262000F069
:1031C00081FA002E01D0149900E0FF21322000F096
:1031D00079FA3020FFF7E8FC6F210840002E01D07B
:1031E000002100E0802108431599090101433020A6
:1031F00000F068FA3120FFF7D7FC4021014331206D
:103200009FE0A0E0FFE75648E41D554D4764046485
:1032100040350A986872119868812E731498687303
:103220001598A8731698E8731798287418986874F6
:103230001998A8740C2F01D90C2702E0062F00D290
:103240000627072C02D0082C02D003E00B2F45D014
:103250000C2F43D0002028721D20FFF7A5FC0A99EF
:103260002001490008433043C1B21D2000F02AFA72
:103270001E20FFF799FC08210840390108431599E1
:103280008900084312998905890F0843C1B21E209D
:1032900000F018FA2620FFF787FCF7210840297A6A
:1032A000C9000843C1B2262000F00CFA1298C1B23E
:1032B0001F2000F007FA2020069900F003FA119869
:1032C000C1B2212000F0FEF9002E03D02220149973
:1032D00000F0F8F9E87B012802D00DE00120BAE700
:1032E0004420FFF761FC80210143442000F0EAF90B
:1032F000297C242000F0E6F9092C02D00321362095
:1033000010E017481A494068884205D90221362042
:1033100000F0D8F9642104E00221362000F0D2F94F
:103320007F213A2000F0CEF9062F0ED03120FFF792
:103330003BFCC108C9003120C91C00F0C3F90A21B7
:10334000372000F0BFF90BB0F0BD3120FFF72CFCA7
:10335000C108C9003120491D00F0B4F90C21EFE784
:10336000F80B00200000F03F00408F4080847E4139
:1033700040DD4A1F10B50020FFF764FD0149002021
:10338000087010BDF80B002010B50120FFF75AFDA2
:1033900001490020087010BDF80B002010B5234C27
:1033A0006078002802D001282CD119E04020FFF7D6
:1033B000FBFB8107890F4020103100F083F9412089
:1033C000FFF7F2FB3E210140412000F07BF9352060
:1033D000FFF7EAFB81061548890E2030817611E05F
:1033E00012484030C07B012812D0F721112000F094
:1033F00069F94020FFF7D8FB8106890E4020403153
:1034000000F060F9022020700320FFF71BFD10BDC3
:10341000F521112000F056F94020FFF7C5FB3321BC
:103420000840014640314020EAE70000F80B002048
:10343000FFB581B01E4604460C9F0A9DFFF7CAFCEB
:103440000298FFF729FD7348390A0091014620319F
:10345000002C06D0012C72D1029A0A77022E56D97E
:10346000FEE7029A0272039A06618561C260878351
:103470000D9A82770E9A0A70119A4A7012994162D7
:103480000398FDF75BF80022634BFCF7B5FFFDF7EF
:1034900063F884B2210A042000F014F9E1B2052097
:1034A00000F010F92846FDF749F802460B460020C7
:1034B0005A49FCF7A1FFFDF74FF884B2210A022018
:1034C00000F000F9E1B2032000F0FCF8252000999B
:1034D00000F0F8F8F9B2262000F0F4F83020FFF7F9
:1034E00063FB6F2108400D99002901D0002100E005
:1034F000802108430E9909010143302000F0E2F8D1
:103500003120FFF751FB40210143312073E0F61DCC
:10351000404C0664456440340B99617267810D9993
:1035200021730F99E173109A22740E9AA273119A63
:103530006274129A42650C2D02D90C2503E05CE0FE
:10354000062D00D20625072E02D0082E02D003E059
:103550000B2D06D00C2D04D000202072012902D0A2
:103560000DE00120F9E74420FFF71EFB8021014315
:10357000442000F0A7F8217C242000F0A3F81D20AF
:10358000FFF712FB0B993001490008430D990843DE
:10359000C1B21D2000F096F81E20FFF705FB0B219D
:1035A0000840290108430E9989000843C1B21E2032
:1035B00000F088F82620FFF7F7FAF7210840217A73
:1035C000C9000843C1B2262000F07CF820200099F1
:1035D00000F078F8F9B2212000F074F8062D0ED032
:1035E0003120FFF7E1FAC108C9003120C91C00F001
:1035F00069F80A21372000F065F805B0F0BD3120E8
:10360000FFF7D2FAC108C9003120491D00F05AF86D
:103610000C21EFE7F80B002080844E4080847E412F
:1036200030B50C467D21C9004A4389B01546FFF7E5
:1036300099FB00200790069003900590019004905C
:103640004B200521800100230291009008951A4625
:1036500021461846FFF7ECFE3120FFF7A5FABF21FF
:103660000140312000F02EF8F021402000F02AF82F
:10367000A021412000F026F8034902200870032011
:10368000FFF7E0FB09B030BDF80B002010B50C4C83
:103690006078002812D0012810D1FA21112000F002
:1036A00011F84020FFF780FA81088900402000F0DF
:1036B00009F8032020700720FFF7C4FB10BD0000AD
:1036C000F80B002013B5012201A900F001F81CBD80
:1036D000F8B5012715460E4604463F030022394639
:1036E0000B48FDF761F920468021084300F01AF8E5
:1036F000002404E0305D00F015F8641CE4B2AC4234
:10370000F8D3012239460248FDF74EF9F8BD000012
:10371000000400480A4610B501460020FFF7D8FF14
:1037200010BD00000EB500210191694608726420A9
:103730000090012301AA02A90248FEF791FB694605
:1037400008790EBD240A002010B5FDF739F9FEF7FF
:1037500015FD10BD10B598B0202000900120002468
:10376000089009946846FEF7AFF8002800D0FEE7FD
:1037700007200D9003200E900F94012110940DA8A6
:10378000FDF79EFF002800D0FEE7012040041694BC
:10379000119011A8FDF70EFF002800D0FEE7FEF7FC
:1037A00039F87D21C900FCF7C1FCFEF7CFFC0420ED
:1037B000FEF7BEFC00221146501EFDF751F918B06D
:1037C00010BD0000134801680122114301604168E7
:1037D000114A114041600168104A114001600168BE
:1037E000012292049143016041683F2212049143F7
:1037F0004160C16A09090901C162016BFF22D4322B
:1038000091430163416B4908490041630021816094
:1038100070470000001002400CB8FF08FFFFF6FEE2
:1038200010B5818CC90707D001684A6801235B0481
:103830009A43836A1A434A60818C890707D50168D5
:103840004A6801231B049A43C36A1A434A60818C65
:10385000490707D501684A6801239B049A43036B13
:103860001A434A60818C090707D501684A68012319
:10387000DB039A43436B1A434A60818CC90607D520
:103880000268916801231B039943836B194391607C
:10389000818C890607D501688A6801235B039A43F6
:1038A000C36B1A438A60818C490612D503685A6833
:1038B00001210905046C8A4322435A60026C8A4242
:1038C00007D10268516803235B059943436C194390
:1038D0005160818C090607D501684A680123DB0421
:1038E000806C9A4302434A6010BD000070B5002509
:1038F0000446C5660068134988421BD10068124E11
:10390000000708D50121334600224905204600F072
:10391000B5F800280CD12068006840070AD50121BD
:10392000334600228905204600F0A8F8002801D07F
:10393000032070BD202060346072A07225720020C8
:1039400070BD000000380140E8030000F8B50446EF
:103950002369A268E5691A43636910202B4300219B
:1039600025681A432B680E463E4F3B4013432B609D
:1039700023685A6803252D03AA43E5682A435A6041
:10398000236AA26925681A43AB680B273F02BB4331
:103990001343AB60344A2568954210D1334A126B09
:1039A0009207920F0ED0012A05D0022A05D0032AD1
:1039B00009D1022007E0042005E0082003E02C4A9A
:1039C000954200D100200122E369D203934224D121
:1039D00000280CD002280DD0042813D0082817D0B6
:1039E00001260A0912010807400F10432FE0FDF7D6
:1039F00017FF09E061681F4A48088018FCF796FB2A
:103A000081B2EEE7FDF71CFF616840004A08F4E769
:103A10006168012248081204EFE7002808D0022854
:103A200009D004280BD0082814D001263046F8BD50
:103A3000FDF7F6FE05E061680F4A48080CE0FDF767
:103A4000FFFE61684A088018FCF770FB80B22168AD
:103A5000C860EBE7616848088018FCF767FB80B234
:103A6000E860E3E7F369FFEF00380140001002402F
:103A7000004400400024F40000127A00F8B51E460D
:103A800015460F460446FCF795FF29462546603546
:103A9000009000291AD043E0701C17D0002E05D0EA
:103AA000FCF788FF0099401AB0420FD920680268DD
:103AB00080218A43026021680A68202082430A60CC
:103AC00021680B68C20093430B601EE02068C16947
:103AD00038468843E0D128E0701C21D0002E05D064
:103AE000FCF768FF0099401AB04219D920680168B4
:103AF00080229143016021680A68202082430A6085
:103B000021680A68C3009A430A6021688A685208DB
:103B100052008A606872A872002028720320F8BDE3
:103B20002068C16938468843D6D00020F8BDFF30F0
:103B3000FF3002308069002806D0FF300021FF30BE
:103B400002304161084670470220704770B5C21DBF
:103B5000FF32FA321546946900F02AFBE11DFF316D
:103B6000FA31C860A869002808D04868E969CA68BD
:103B70008321890061189047002070BD022070BD2C
:103B800070B504460025812100F074FA0121204619
:103B900000F070FA8221204600F06CFAFF34FF3406
:103BA0000234A069002807D0E06940688047A06916
:103BB00000F07AFD0020A061284670BDFF3010B5EE
:103BC000FF301A300AC8002B0AD0CC1DFF34FA345B
:103BD0002078FF2804D09B6862789847FF202070E7
:103BE000002010BD0A210180004870470800002015
:103BF0004321018000487047580000204321018084
:103C0000004870471400002043210180004870479D
:103C10009C000020F8B50446007C012600257602B1
:103C2000002830D0402302228121204600F01EFBD4
:103C3000402302220121204600F018FB0823032222
:103C40008221204600F012FB8720800000F02EFD2C
:103C5000E11DFF31FA31886100281CD00746C86990
:103C600000688047FF370020FF3702377861B8616E
:103C7000207C7A68002810D040230121204600F0E3
:103C800001FB2846F8BD334602228121204600F080
:103C9000EDFA3346CDE70125F3E73346EDE710B5FE
:103CA0004321C9000958002913D0027C002A09D0F9
:103CB000FF31FF3102314A684023012100F0E2FA6E
:103CC000002010BDFF31FF31023101235B024A6841
:103CD000F3E7022010BD02460220002904D0FF3283
:103CE000FF3202320020D1617047FF30FF300230D6
:103CF0008069FF30FF300230416000207047FF30A4
:103D0000FF3002308069FF30FF3002300261816095
:103D10000020704770B50C46C11D0546FF31FA31D1
:103D2000207860228E69024022D0202A28D1E288A1
:103D3000002A16D0000607D5C96960788B6831461D
:103D40009847E288314618E0F01DFF306178FA307C
:103D50000170A1794170E2883146284600F036F8BA
:103D60000EE0C96960788B6800222146984707E019
:103D700060780A2804D103490122284600F042F85D
:103D8000002070BD0400002010B58522920012585A
:103D900052689047002010BD134610B50A46002116
:103DA00000F070FA002010BD134610B50A4600213D
:103DB00000F0FEFA002010BD10B50446802100F08E
:103DC000DDFA0021204600F0D9FA10BD10B5FF231E
:103DD0000324F5331C50C31DF9339A60DA6013468F
:103DE0000A46002100F04EFA002010BD10B5FF2158
:103DF0000522F5310A5000231A46194600F042FA0E
:103E0000002010BD10B5FF230224F5331C50826141
:103E10001346C2610A46002100F0CAFA002010BD14
:103E200010B5FF210422F5310A5000231A46194625
:103E300000F0BEFA002010BD10B50A46024903A0EA
:103E400000F0D4F8004810BDA401002043444320F2
:103E5000436F6E6669670000122008800048704753
:103E60004001002010B50A46024903A000F0BEF848
:103E7000004810BDA401002043444320496E7465EE
:103E80007266616365000000042008800048704786
:103E90003C01002010B50A46024903A000F0A6F834
:103EA000004810BDA401002053544D6963726F6532
:103EB0006C656374726F6E696373000010B50A46B7
:103EC000024903A000F092F8004810BDA4010020B0
:103ED00053544D3332205669727475616C20436FB0
:103EE0006D506F727400000010B50A46024903A0BD
:103EF00000F07CF8004810BDA401002030303030C4
:103F0000303030303030314100000000F8B50D461F
:103F100004464988FF300A0AFF300230130000F0DF
:103F2000E8FB084905091649493E46490069237CD2
:103F300002682AE0217C02264069002905D0C16A76
:103F4000684688470146467040E0816AF8E7C9B292
:103F50000B0000F0CEFB0604080F13171E2F00699C
:103F6000227C436802E00069227C8368694610462F
:103F7000984712E00069227CC368F7E70069227C59
:103F80000369F3E70069237C426969461846904754
:103F900003E00069227C8369E8E7014616E0217CA2
:103FA000002907D14069416B68468847F5E7217CC5
:103FB000002904D029462046FFF7FEFEF8BD4069DF
:103FC000016B6846884707220146427068460088B0
:103FD0000028F3D0EA88002AF0D0824200D90246B5
:103FE000684602802046FFF70DFFF8BD70B500233C
:103FF00000281CD00446002502E06D1CEDB2641CB4
:104000002678002EF9D16C00A41C1480CC54032215
:104010005B1CCA5400245B1C06E0CA545B1CDAB269
:104020008C54521CD3B2401C0278002AF5D170BDCA
:1040300010B5002813D0C31DFF33FA335C69002C80
:1040400001D000245C61002900D01961FF21012307
:10405000FD310B54027000F0B3F8002010BD0220B7
:1040600010BDFF3010B5FF300230006AFCF7E8FDEC
:10407000002010BDFF3010B5FF300230006AFCF7A1
:104080002BFD002010BDFEB50446FF30E51DE130DC
:10409000FF35FA3513460190002908D06869426956
:1040A000002A49D00198007F032843D044E02646E7
:1040B000FF3681362046716F1430022934D1C26830
:1040C00081680092914207D9891A81608AB21946A3
:1040D0002046FFF769FE13E0406811460746FCF7EB
:1040E00025F8002913D10098874210D3B06F87427A
:1040F0000DD2002211462046FFF756FE0020B06781
:1041000000231A461946204600F0BCF80CE0686906
:10411000C168002905D00198007F032801D12046FD
:1041200088472046FFF762FE2878012804D1002046
:10413000287001E0204690470020FEBD70B505467E
:10414000FF35E1352B46203316460446002907D0BB
:1041500058698269002A29D0287F032824D025E0C5
:10416000FF21F531E01D0959FD3003291ED1826878
:10417000C1688A420BD9511A8160C068814200D35C
:1041800001468AB231462046FFF706FE0EE0586926
:104190000169002904D0287F032801D120468847DF
:1041A0002046FFF73DFE01E020469047002070BD0D
:1041B000FF3010B5FF300230006AFCF79BFD10BDE8
:1041C00010B51E49C41DC861FF341D49FA341D488D
:1041D00021620860022208208A60486003200A6188
:1041E000C86000208861C8610846FDF711F9002801
:1041F00001D0FCF717FB002218231146206AFCF7B8
:1042000033FC582300228021206AFCF72DFCC023B8
:1042100000228121206AFCF727FCFF2311330022B2
:104220000121206AFCF720FCFF23013300228221B8
:10423000206AFCF719FC002010BD0000E8090020EE
:10424000E8070020005C0040FF30CA09FF30490643
:104250000230490E1C23006A59430818002A01D075
:10426000203001E0FF300130807A704710B5FF3018
:104270001C46FF3002301346006A2246FCF744FD1C
:10428000002010BDFF3010B5FF300230006AFCF78F
:104290008DFE002010BD70B500220446402311465B
:1042A000FFF7E4FF4025FF20113005512B46002287
:1042B00080212046FFF7DAFFFF200121FD30256233
:1042C0000155E01DFF30FA308169002904D04069B2
:1042D0002179426820469047002070BDFF30E130D0
:1042E000417F01770020704710B5FF21FD31095C47
:1042F000032906D1852189000958C969002900D000
:104300008847002010BD017400207047FF3010B5B1
:10431000FF300230006AFDF70FF9002010BD70B5C4
:1043200004464120C0002018054600F04AF8214606
:10433000FF3181310122084680304A67C2898A678D
:10434000007AC106C90E0AD001290DD0022910D069
:10435000C109C901204600F011F8002070BD2946AE
:10436000204600F098F8F8E72946204600F07FF94B
:10437000F3E72946204600F005F9EEE7FF3010B5D7
:10438000FF300230006AFCF7ADFE002010BDFF30A8
:1043900010B5FF300230006AFDF7EFF8002010BDC5
:1043A000FF30E130017F4177042101770020704721
:1043B000FF3010B5FF300230006AFCF7DDFE002050
:1043C00010BD0A7802704A784270CB788A781B0256
:1043D000D21842804B790A791B02D21882808A79DE
:1043E000C97909025118C18070470246002000298E
:1043F00004D0FF32FF320232516170470220704711
:1044000010B58522920012580224002A04D01268A6
:104410009047002800D10024204610BD70B50E46FC
:104420008978194D04462970012904D9314620465E
:10443000FFF7C2FC70BD2046FF30E130027F022A48
:1044400015D0032AF2D1002917D0606888420AD01B
:10445000C1B22046FFF798FC297861602046FFF73B
:10446000CFFF0228E2D02046FFF7DAFC70BD00291A
:10447000F9D0032261600277F0E70222027720463A
:104480006160FFF781FCEEE70000002010B5FFF748
:104490007EFF002010BDF8B500220092C61DFF3639
:1044A0004C781746FA3632460125203A230000F0B0
:1044B00020F90A3C564150410906412B2841FFF79B
:1044C00025FD5DE004468888002818D1C8880028AA
:1044D00015D1887817464606107F760E03280ED031
:1044E000BE7731462046FFF711FF2046FFF798FCC4
:1044F000002E02D00220387742E03D7740E020468F
:1045000018E0FFF78BFF3BE0CB88012B12D1127F25
:10451000022A02D0032A0DD104E00122014608310B
:10452000876013E00122011D10E0127F022A04D0EF
:10453000032A02D0FFF740FC22E0C5607168002921
:1045400001D00321C160014602220C31FFF75AFC61
:1045500016E004464888012812D1756009E0044637
:10456000107F022801D00328C9D14888012807D12B
:10457000776070698268204690472046FFF750FCBC
:104580000098F8BDF8B504460D462878E61D4006AB
:10459000FF3600270979800FFA36012809D06A789A
:1045A00030462038002A38D0012A1ED0032A3DD1B7
:1045B00006E0706929468268204690470020F8BDD1
:1045C000007F022817D003282CD16888002806D144
:1045D000002904D0802902D02046FFF7CFFE706961
:1045E000294682682046904713E0007F022802D0C7
:1045F000032817D104E0002918D080291AD115E02A
:104600006888002812D1480603D02046FFF729FD0C
:10461000E5E72046FFF704FC08E0007F022807D00A
:1046200003280BD029462046FFF7C6FB3846F8BDC5
:104630004806FBD02046FFF7A1FEF7E7C80904D0E3
:104640004806400D0519143504E04806400D0519CB
:10465000FF3505352046FFF7F7FD002800D0012083
:104660002860022229462046FFF7CCFBDEE770B522
:104670000446FF30E130007F0D4603280FD1287932
:1046800001280CD885208000005982682046904778
:10469000E888002806D12046FFF7C2FB02E020464A
:1046A000FFF78AFB002070BD70470000004870478C
:1046B000C805002010B50248FCF724FE10BD00001C
:1046C000E80700202021020C01D010211046020A28
:1046D00001D010460839020901D01046091F82088E
:1046E00001D01046891E420801D0881E7047081A62
:1046F000704730B47446641E2578641CAB4200D207
:104700001D46635D5B00E31830BC184702E008C833
:10471000121F08C1002AFAD170477047002001E03B
:1047200001C1121F002AFBD170470000F8B54A00F2
:104730002B4B520DD6182B4A0C460546142E2BDA5D
:10474000002E12DA284BFBF73DFD00221346FBF743
:1047500021FF40D2002C03DA0124E40700253AE0CF
:104760002046284337D0214C14E0214F0B46F74018
:104770003B402B4331D01C4BFBF724FD002213465A
:10478000FBF708FF27D2002C03DD01200005F040D5
:104790000419BC4300251EE0332E1EDC33460027DF
:1047A000143BFF43DF40384217D00F4BFBF7B4FDFB
:1047B00000221346FBF7EEFE0DD2002C0ADD142E6C
:1047C0000CD03420811B012088404019A84200D21F
:1047D000641C0546BD4321462846F8BD641CF9E724
:1047E00001FCFFFF9C7500883CE4377E0000F03F31
:1047F000FFFF0F00F8B54A002B4B520DD6182B4A7D
:104800000C460546142E2BDA002E12DA284BFBF745
:10481000D9FC00221346FBF7BDFE40D2002C02DB80
:10482000002425463BE060004008284337D0214C57
:1048300014E0214F0B46F7403B402B4331D01C4B3B
:10484000FBF7C0FC00221346FBF7A4FE27D2002C86
:1048500003DA01200005F0400419BC4300251EE0E6
:10486000332E1EDC33460027143BFF43DF40384223
:1048700017D00F4BFBF750FD00221346FBF78AFEC3
:104880000DD2002C0ADA142E0CD03420811B01200A
:1048900088404019A84200D2641C0546BD43214609
:1048A0002846F8BD641CF9E701FCFFFF9C750088F1
:1048B0003CE4377E0000F0BFFFFF0F008AB0FCF73A
:1048C00087F8FEF747FFFDF78BFCFDF7CBFCFDF704
:1048D000EFFCFDF70DFD11490F48114C8860216870
:1048E0000E488847E1680F48884700200121099158
:1048F00008900591069007900522039004900821E6
:104900006B4607C301230146A5690A221846A8473A
:10491000616B00208847FEE76D230008080A00202D
:104920008C4A000800A1BC33F0B513B406460199C7
:10493000FBF7C6FE04460D4602460B46304601997B
:10494000FBF7E4FC064601981B4B0F4600280CDAE7
:1049500000223046FBF7F2FE0CD90022174B3046FE
:104960003946FBF717FE1DD214E000223046FBF754
:10497000E5FE08D20022124B20462946FBF7C6FC72
:1049800004460D460EE000220C4B30463946FBF73C
:1049900001FE07D800220A4B20462946FBF712FCED
:1049A00004460D46019A69004908D20FD2072046F5
:1049B000114303B0F0BD00000000E0BF0000E03F85
:1049C0000000F03F000000000000000001020304AE
:1049D000060708090000000001020304280A00007D
:1049E000170000001C0C00000F0000003C0F00002E
:1049F0000700000050140000160000009C18000082
:104A00000E000000781E000006000000A028000034
:104A100015000000D43000000D000000F03C000044
:104A2000050000004051000014000000A8610000D3
:104A30000C000000447A000004000000E4A2000022
:104A40001300000050C300000B00000024F400001D
:104A5000030000008545010012000000A08601004F
:104A60000A00000048E80100020000002C8B020050
:104A700011000000400D03000900000090D0030069
:104A800001000000E093040000000000E52A000897
:104A9000F5280008D52D0008652D0008312B0008E9
:104AA0006B2B0008ED30000831340008EF280008B7
:104AB00001290008712C00087533000889330008AB
:104AC000292F00088D36000821360008FD2B00082C
:104AD000C5360008A92B0008D1360008B92B0008FC
:104AE000A52D0008752E0008084B000800000020C6
:104AF000A401000088070008F84B0008A40100206A
:104B0000BC1200001C47000881130A063202334021
:104B1000011409024313020125C03209041B0102DA
:104B20000B130524161001052401100901042402A9
:104B30000205240617010705820308151009040160
:104B400033020A1D07050102432C070581070938B6
:104B5000442A40072A8107112B0907440A220444EA
:104B60000A16FF4413153C1408813B1408153D42F6
:104B7000081ABD0C1A2F041A4D04C11AFD101AF19F
:104B8000041A09306AE51C13127A13593E1B08896E
:104B9000041A95041ABD041AE9041A39041A6504A2
:104BA0001E0403090412771302021E4083044057B7
:104BB000AD2402030113E9071B08E3041ADF04CB49
:104BC0000D086811130C23130D1E130ED2131A01B6
:104BD000131FAA1324071327121328C11329941390
:104BE0002AC11330D813358F1A3B51211009413097
:084BF0000131430123400000E4
:04000005080000C12E
:00000001FF
